:020000040800F2
:10000000F851002029030008FF3A00086533000872
:10001000FD3A000855090008894700080000000063
:10002000000000000000000000000000690200085D
:10003000D90D000800000000C5020008613F00085B
:100040004303000843030008430300084303000878
:100050004303000843030008DB0D000843030008C6
:100060004303000843030008E10D000843030008B0
:10007000010A0008430300080D0A000843030008B2
:10008000430300084303000843030008A1090008D4
:10009000950900084303000843030008E70D000822
:1000A0001D400008394000084303000843030008CE
:1000B0004303000843030008430300084303000808
:1000C00043030008430300084303000843030008F8
:1000D000430300086945000843030008AD450008D4
:1000E0004303000843030008430300085540000889
:1000F000614000084303000843030008430300086D
:1001000043030008430300084303000843030008B7
:1001100043030008430300084303000843030008A7
:10012000190A0008250A0008310A0008D50A000843
:10013000430300084303000843030008F5090008CF
:10014000E9090008430300084303000843030008CB
:10015000E10A0008ED0A0008F90A00084147000812
:100160004303000843030008430300084303000857
:100170004303000843030008430300080000000095
:10018000430300084303000800F002F800F05CF8A5
:100190000AA090E8000C82448344AAF10107DA45E2
:1001A00001D100F051F8AFF2090EBAE80F0013F0D8
:1001B000010F18BFFB1A43F0010318476C7C0000C5
:1001C0008C7C00000A444FF0000C10F8013B13F047
:1001D000070408BF10F8014B1D1108BF10F8015BA0
:1001E000641E05D010F8016B641E01F8016BF9D193
:1001F00013F0080F1EBF10F8014BAD1C0C1B09D1EA
:100200006D1E58BF01F801CBFAD505E014F8016B5B
:1002100001F8016B6D1EF9D59142D6D370470000ED
:100220000023002400250026103A28BF78C1FBD8FF
:10023000520728BF30C148BF0B6070471FB507F099
:1002400026FD1FBD10B510BD00F094F91146FFF753
:10025000F5FF05F047FF00F0B2F903B4FFF7F2FF36
:1002600003BC00F0B5F900002C4B19680868B0E831
:10027000F04F80F30988BFF36F8F4FF0000080F3D9
:10028000118870470000000008480068006880F38B
:1002900008884FF0000080F3148862B661B6BFF39F
:1002A0004F8FBFF36F8F00DF00BF00BF08ED00E08E
:1002B000DFF80C00016841F470010160704700BF75
:1002C00088ED00E0EFF30980BFF36F8F134B1A68DE
:1002D0001EF0100F08BF20ED108A20E9F04F1060CB
:1002E00009B44FF0500080F31188BFF34F8FBFF374
:1002F0006F8F06F029FD4FF0000080F3118809BCD4
:1003000019680868B0E8F04F1EF0100F08BFB0EC95
:10031000108A80F30988BFF36F8F70472400002094
:10032000EFF30580704700000948804709480047FF
:10033000FEE7FEE7FEE7FEE7FEE7FEE7FEE7FEE795
:10034000FEE7FEE704480549054A064B70470000F2
:100350000D40000889010008F84B0020F8510020EA
:10036000F84D0020F84D002053EA020C00F069809F
:100370002DE9F04B4FF00006002B1FBFB3FA83F5B9
:1003800003FA05F424FA05F65E4012BF1643B2FAEA
:1003900082F502FA05F4C5F120051EBF22FA05FC1C
:1003A00044EA0C04203556EA044C4FEA144418BFC2
:1003B000641C4FF000084FF00009904271EB030CF1
:1003C00039D3002919BFB1FA81F701FA07F6B0FA5B
:1003D00080F700FA07F6C7F120071EBF20FA07FCD6
:1003E00046EA0C062037B6FBF4FCA7EB0507103FE6
:1003F00007F01F0BCBF120060CFA0BFB2CFA06F6CC
:1004000044BFB3460026202FA4BF5E464FF0000B2A
:100410005BEA060C08BF4FF0010B19EB0B09ABFBB5
:10042000027C48EB0608C01B06FB02CC0BFB03CC8E
:1004300071EB0C01C1E70B46024641464846BDE858
:10044000F08B13B54FF000004FF00001AFF30080C8
:10045000BDE81C40704710B5431C02E010F8011BBA
:1004600071B18107FAD14FF0013202C88C1A8C4366
:1004700014EAC211F9D0C01A0A0603D0C01E10BD7A
:10048000C01A10BD0A0401D0801E10BD0902FCD0A4
:10049000401E10BD10B5203AC0F00B80B1E81850D6
:1004A000203AA0E81850B1E81850A0E81850BFF45E
:1004B000F5AF5FEA027C24BFB1E81850A0E81850FD
:1004C00044BF18C918C0BDE810405FEA827C24BF51
:1004D00051F8043B40F8043B08BF7047D20728BFDF
:1004E00031F8023B48BF11F8012B28BF20F8023B2E
:1004F00048BF00F8012B70474FF0000200B51346CB
:1005000094469646203922BFA0E80C50A0E80C5033
:10051000B1F12001BFF4F7AF090728BFA0E80C50E4
:1005200048BF0CC05DF804EB890028BF40F8042BDD
:1005300008BF704748BF20F8022B11F0804F18BF4A
:1005400000F8012B704770477047704710B500F0F6
:1005500009F8006810BD10B5044600F003F8046007
:1005600010BD000000487047944B002000487047C1
:10057000944B00207546FFF7F9FFAE46050069462B
:10058000534620F00700854618B020B5FFF7DAFE85
:10059000BDE820404FF000064FF000074FF0000884
:1005A0004FF0000B21F00701AC46ACE8C009ACE805
:1005B000C009ACE8C009ACE8C0098D46704710B569
:1005C0000446AFF300802046BDE81040FFF745BE6B
:1005D00001491820ABBEFEE726000200704700006C
:1005E000B7EE000A80ED000A9FED040A80ED010AD3
:1005F00080ED020A80ED030A704700000000000051
:1006000001221021014801F063BB000000000240FC
:1006100000221021014801F05BBB000000000240F5
:100620007047000001221146014801F051BB000053
:100630000004024000220121014801F049BB0000F2
:100640000004024030B5437804781B021BB22343F8
:1006500000EE103A194CB8EEC00AD4ED010A20EEB3
:10066000200A81ED000AC37885781B021BB22B4358
:1006700000EE103AD4ED010AB8EEC00A20EE200ACE
:1006800081ED010A437904791B021BB2234300EE7A
:10069000103AB8EEC00A20EE200ADFED090A81ED1B
:1006A000020AD0F8060020F07F4000EE100AB8EEF3
:1006B000400A20EE200A82ED000A30BD1001002021
:1006C00000401C42704705F045BD05F0CBB8000066
:1006D00010B542780378120212B21A4300EE102AC3
:1006E000124BB8EEC00AD3ED020A20EE200A81EDCB
:1006F000000AC2788478120212B2224300EE102A55
:10070000D3ED020AB8EEC00A20EE200A81ED010AFC
:1007100042790079120212B2024300EE102AB8EEBA
:10072000C00A20EE200A81ED020A10BD100100204F
:1007300010B5FFF775FFFFF7C5FF04F0D7FD08B14F
:10074000802402E004F03EFD044604F0A7FF10B14F
:1007500044F0400010BD04F033FF204310BD000002
:100760002DE9FC410746002016460D4600900190F9
:10077000FFF74EFF922000F0BDF8062269461220D6
:1007800000F09AF8FFF73CFF9DF801009DF800107B
:10079000000200B2084300EE100A464CB8EEC00A50
:1007A000D4ED010A20EE200A85ED000A9DF8030031
:1007B0009DF80210000200B2084300EE100AD4EDCA
:1007C000010AB8EEC00A20EE200A85ED010A9DF864
:1007D00005009DF80410000200B2084300EE100A64
:1007E000B8EEC00A20EE200A85ED020AFFF722FFCC
:1007F00008226946002000F05FF8FFF713FF9DF81C
:1008000000000F2830D19DF803009DF8021000026F
:1008100000B2084300EE100AD4ED020AB8EEC00A96
:1008200020EE200A87ED000A9DF805009DF80410CF
:10083000000200B2084300EE100AD4ED020AB8EE3E
:10084000C00A20EE200A87ED010A9DF807009DF8F6
:100850000610000200B2084300EE100AB8EEC00A0B
:1008600020EE200A87ED020AFFF7D2FEA22000F058
:1008700041F802226946222000F01EF8FFF7C0FE70
:100880009DF800009DF80110C00040EA5110B0F53D
:10089000806F01DBA0F5006000EE100AB4EE001AD4
:1008A000F8EEC00AB3EE070A00EE810A86ED000AF0
:1008B000BDE8FC811001002070B514460D4640F0E3
:1008C000800000F017F806E0552000F013F8641ED1
:1008D00005F8010BE4B2002CF6D170BD10B50C4642
:1008E00040F0800000F006F8552000F003F820707A
:1008F00010BD000001B582B04FF47A700090012362
:1009000001AA02A9024801F00BFE9DF804000EBDE9
:10091000A804002002784078D20042EA5010B0F5D6
:10092000806F01DBA0F5006000EE100AB4EE001A43
:10093000F8EEC00AB3EE070A00EE810A81ED000A64
:10094000704710B50C46FFF7D5FF2046BDE81040B4
:10095000FFF7D0BFFEE7000000B58BB000200121FB
:10096000CDE906010590009001900290039004905B
:100970000E20CDE908106946054800F0F1FA022181
:10098000034800F077FA024800F0A0FE0BB000BD6B
:1009900058040020014800F0DEBB0000580400208D
:1009A000014800F0D8BB00005804002000B58BB00F
:1009B00001220E2100200792CDE90510039004903A
:1009C000CDE908210090019002906946054800F0A9
:1009D000C7FA0221034800F04DFA024800F076FE03
:1009E0000BB000BD80040020014800F0B4BB000043
:1009F00080040020014800F0AEBB0000800400200D
:100A0000014800F0F1BE0000B4080020014800F0E9
:100A1000EBBE000014090020014800F0E5BE000014
:100A200000050020014800F0DFBE0000740900202E
:100A300070B523480068800240D521494FF0F4602A
:100A4000083108601F4C207880070CD5207820F0F2
:100A500002002070207840F004002070012211462E
:100A6000194801F035F96078184D80070CD5607889
:100A700020F002006070607840F004006070012295
:100A80001021284601F024F9A07880070CD5A07821
:100A900020F00200A070A07840F00400A0700122B5
:100AA0001021284601F014F905F0E4F820784007F9
:100AB00004D50748016841F00101016070BD0000E4
:100AC000006402404801002000040240000002408F
:100AD000103C0140014800F087BE00006005002086
:100AE000014800F081BE0000F4070020014800F03A
:100AF0007BBE0000D4090020014800F075BE000054
:100B0000540800202DE9F04F85680024099E802DAF
:100B100018D0894DC563894D456490F83450012D36
:100B200015D0012580F8345090F83550012D10D0A3
:100B3000002180F834100224002180F8341020466F
:100B4000BDE8F08F4FF4807141650120F8E7022085
:100B5000F6E7022580F835500025456505682F68C1
:100B600047F480272F6005682B6103685E60836807
:100B7000402B03682AD099600168CA60714D704E9D
:100B8000704FDFF8BC81DFF8B891DFF8B8A1DFF86B
:100B9000B4B1EA14DFF8A8E10168183630379302DF
:100BA000A9F148090AF1600A0BF1180BAEF1300EF9
:100BB0004FF0006C41452DD9A94205D0494503D0DD
:100BC000514501D0B14205D1202220E09A6002684F
:100BD000D160D3E759451AD0714518D0594D7835B1
:100BE000A94214D0564D3035A94210D0B9420BD08D
:100BF000534A183A914207D0524A9032914203D058
:100C00004F4A4832914201D11A4600E062464C49AF
:100C10004C392EE0DFF82C8108F1A80841452AD98B
:100C2000A94205D0494503D0514501D0B14201D177
:100C300020221CE059451AD0714518D0414D783515
:100C4000A94214D03E4D3035A94210D0B9420BD044
:100C50003B4A183A914207D03A4A9032914203D027
:100C6000374A4832914201D11A4600E0624634497F
:100C700050390A605AE0DFF8CC8008F14808414555
:100C80002AD9A94205D0494503D0514501D0B142E6
:100C900001D120221CE059451AD0714518D0294DA8
:100CA0007835A94214D0264D3035A94210D0B9422A
:100CB0000BD0234A183A914207D0224A90329142EF
:100CC00003D01F4A4832914201D11A4600E06246E1
:100CD0001C491039CA6029E0A94205D0494503D012
:100CE000514501D0B14201D120221CE059451AD012
:100CF000714518D0134D7835A94214D0104D3035B8
:100D0000A94210D0B9420BD00D4A183A914207D0EF
:100D10000C4A9032914203D0094A4832914201D1A3
:100D20001A4600E06246074910398A6001680A687D
:100D300042F001020A60FFE6D15800080959000894
:100D4000586402401060024001681823CAB2103A89
:100D5000B2FBF3F2054B6FF30901032A9B5CC365F9
:100D600000D9091D8165084670470000147D000800
:100D700010B5014600208B698A6A4FF0C07453B1E8
:100D8000B3F5005F15D072B1012A0CD0022A0AD047
:100D9000032A09D104E01AB1012A06D0022A03D19C
:100DA000C96AC90100D5012010BDC96AA142FAD0A3
:100DB00010BD002AF7D0012AF2D0022AF3D0032A6C
:100DC000F3D010BD01680A68D20604D5C968C90607
:100DD00001D505F087BD70477047012000F074BE53
:100DE000102000F071BE202000F06EBE72B6FEE74B
:100DF00038B59FED1C0A1C491C48F0EE400A05F06E
:100E000043FA1A4C1C3CB4F9180000EE100AB4F96D
:100E10000600F8EEC00A00EE100A1448B8EEC00A48
:100E200005F0DEF91048083880ED010AB4F9181011
:100E300000EE901AF8EEE00AF4EEC00AF1EE10FAB5
:100E400003D29FED0B0A80ED010ABDEEC00A10EE41
:100E5000100A01B261800B460A460020009105F09D
:100E6000F3FC38BD0080BB45EC010020504B002056
:100E70000000000090F82020012A07D0022A05D0A7
:100E8000416A41F480214162012070470068426953
:100E90000A43426100207047F0B590F82050046882
:100EA000A468012D05D0022D03D0416A41F48021B0
:100EB00053E014F0406F01D1E5004BD5C4F3016459
:100EC000022C03D9416A41F4000146E00125A54006
:100ED0001D608D684FF4C0739DB1CE6835434E6878
:100EE00045EAC605066803EB0417F5514FF4C275D1
:100EF000076805EB04150E697E51097D012905D0AF
:100F000009E00E88CD6845EA4655EBE701684E5981
:100F100046F480764E511179D2F805504FF4C676DA
:100F200041EA0525016806EB04168D511178D2F8C7
:100F300001204FF4C47541EA0221026805EB041553
:100F40005151006803EB0411425842F00102425033
:100F50000020F0BD416A41F4001141620120F0BD62
:100F600010B590F82020012A07D0022A05D0416A46
:100F700041F480214162012010BD3B48D0F800229D
:100F800042F00102C0F80022D0F8002222F47C5284
:100F9000C0F80022D0F800224B6A42EA0322C0F8CF
:100FA00000220A7D02F01F0301229A40D0F81C3271
:100FB0009343C0F81C32CB69B3B9D0F80C329343D9
:100FC000C0F80C328C894B6864F31F434C6900EB0A
:100FD000C404C4F840320C890B6864F31F434C69A5
:100FE00000EBC404C4F84432CB69012B16D1D0F80D
:100FF0000C321343C0F80C320C884B6864F31F4367
:101000004C6900EBC404C4F840320C89CB6864F32B
:101010001F434C6900EBC404C4F844328B69002BB5
:10102000D0F804320ED01343C0F804320B69002B01
:10103000D0F8143208D01343C0F81432096A0129D9
:1010400004D008E09343EFE79343F5E7D0F81C1290
:101050001143C0F81C12D0F8001221F00101C0F8B1
:101060000012002010BD000000640040704730B541
:1010700090F82040012C05D0022C03D0416A41F4A5
:1010800080215DE00468002955D02469A40754D06C
:101090004FF4D874056804EB01142D5915F00405BC
:1010A000956005682D594ED0ED08556005682C599E
:1010B00004F00204D4604FF4DA74056804EB011400
:1010C0002D5905F00F05156105682D59C5F3072544
:1010D000956105682C59240C54614FF4DC72046846
:1010E00002EB0112A4581C700468A458240A5C7016
:1010F0000468A458240C9C700468A258120EDA707C
:101100004FF4DE72046802EB0112A4581C710468EB
:10111000A458240A5C710468A458240C9C710468C7
:10112000A258120EDA71006881B1016941F0200104
:101130000161002030BDE468A8E7416A41F4001174
:101140004162012030BD6D0D1560AFE7C16841F00F
:101150002001C160EDE72DE9F05F0546006800243D
:101160004669D0F804908768D0F80CB0D0F810A089
:10117000D0F81880F10748D0F90714D00121816018
:10118000B80703D5284600F0CEFA0CE0780702D560
:101190004FF4006407E0380702D54FF4805402E0B2
:1011A000284600F0BFFAF80516D529684FF480707C
:1011B0008860B80503D5284600F0B7FA0CE078053A
:1011C00002D544F4005407E0380502D544F48044C5
:1011D00002E0284600F0A8FAF80316D529684FF473
:1011E00080308860B80303D5284600F0A0FA0CE0F0
:1011F000780302D544F4004407E0380302D544F4F0
:10120000803402E0284600F091FA300707D55FEA03
:10121000CB6004D52968102044F40074C8607007BE
:101220004FF0080707D55FEA0B7004D52868C76040
:10123000284600F0A9F9B00706D52868C0688007DD
:1012400002D0284600F0A2F9700607D55FEACA600E
:1012500004D52968102044F480640861B00607D5DD
:101260005FEA0A7004D528680761284600F02AFA68
:10127000F00606D528680069800702D0284600F0ED
:1012800022FAB00308D55FEAC96005D529681020A5
:101290004860284600F018FAF00307D55FEA0970A5
:1012A00004D528684760284600F042FA300446D545
:1012B0005FEA497040D5F00504D55FEAC87001D0F7
:1012C00044F00104B00504D55FEA887001D544F00C
:1012D0000204700504D55FEA487001D544F00404A7
:1012E000300529D518F0700F26D008F0700040287E
:1012F00015D006DC102809D020280AD0302816D1B5
:101300000AE050280ED0602811D10EE044F0080405
:101310000DE044F010040AE044F0200407E044F03B
:10132000400404E044F0800401E044F48074286840
:10133000816921F070018161296804204860002CD6
:1013400005D0686A204368622846FFF78FFEBDE833
:10135000F09F70B5040003D094F8200010B104E0B1
:10136000012070BD204600F081F82068016841F03E
:101370000101016000F0B2FC0546052604E000F022
:10138000ADFC401B0A2811D820684068C007F6D081
:101390002068016821F00201016000F09FFC054611
:1013A0000BE000F09BFC401B0A2806D9606A40F461
:1013B0000030606284F82060D2E7206840688007CF
:1013C000EFD4207E0128206801683DD021F0800103
:1013D0000160607E01282068016838D021F040015A
:1013E0000160A07E01282068016833D021F020012F
:1013F0000160E07E0128206801682ED041F01001D4
:101400000160207F01282068016829D021F00801AF
:101410000160607F01282068016824D021F0040168
:101420000160D4E902010843D4E9041211430843DE
:101430006168491E08432168C8610020606201207C
:1014400084F82000002070BD41F08001C0E741F029
:101450004001C5E741F02001CAE721F01001CFE7C4
:1014600041F00801D4E741F00401D9E7F0B587B0B5
:10147000044614216846FFF73FF83E4B3E48DFF82C
:10148000F0E01968D4F800C03B4A0325022609277A
:1014900010300024491CF4452AD11960012907D1D4
:1014A000016841F000710160006800F00070059073
:1014B000106840F0080010601068CDE9005600F098
:1014C0000800CDE9047069462C48CDE9024500F0DA
:1014D00007FB00220521132000F072FC132000F00E
:1014E00061FC00220521142000F06AFC14203AE07F
:1014F000DFF88CE0F44538D1D0F800C04CF0806CB7
:10150000C0F800C0D0F800C001290CF0806CCDF804
:1015100014C0196007D1016841F0007101600068D2
:1015200000F000700590106840F002001060106834
:1015300002AB00F0020005906020CDE9000683E8D0
:10154000B00069460F4800F0CBFA002205213F2089
:1015500000F036FC3F2000F025FC00220521402051
:1015600000F02EFC402000F01DFC07B0F0BD000094
:10157000006400401000002030380240000C02409F
:1015800000680040000402407047000070B5054646
:101590000068454E8CB0B04205D16B4602AA0021CE
:1015A0002846FFF764FD2868404CB04222D16B46C4
:1015B00002AA00212846FFF75AFD0298A0F2052052
:1015C000032815D210F0FF0FBDF8000042BA3848CA
:1015D0008280BDF8022052BAC280BDF8042052BAFF
:1015E00002819DF80620827202D12088401C208052
:1015F0000CB070BD2F498842FAD109AB02AA002174
:101600002846FFF734FD0298A0F20120072819D2DE
:1016100010F0FF01BDF8240001EB410342BA264857
:1016200000EB83008280BDF8262052BAC280BDF84C
:10163000282052BA02819DF82A20827202D1208885
:10164000401C20800298A0F500711139D0D1BDF85E
:10165000240000EE100A1A48F8EE400A9FED170A1F
:1016600080EE801A80ED001ABDF8261000EE901A68
:10167000F8EE600A80EE801A80ED011ABDF828109D
:1016800000EE901AF8EE600A80EE801A80ED021AE1
:10169000BDF82A1000EE901AF8EE600A80EE801A6B
:1016A00080ED031AA4E70000006400408C000020D5
:1016B000344B0020006800401C4A00200000C84253
:1016C00024470020704770477047000070B50446FB
:1016D00090F82000012804D0606A40F40020606285
:1016E00018E0022084F820002068016821F0010140
:1016F000016000F0F3FA05460EE000BF00F0EEFADC
:10170000401B0A2808D9606A40F400306062052056
:1017100084F82000012070BD20684068C007EDD12A
:10172000606270BD70477047704770477047704780
:1017300070472DE9F0410446876D00F0CFFA064668
:1017400094F835000025022806D08020606584F8D2
:1017500034500120BDE8F0812068016821F01601B5
:1017600001602068416921F080014161206C08B965
:10177000A06C20B12068016821F008010160206898
:10178000016821F0010101600CE000F0A7FA801B64
:10179000052807D920206065032084F8350084F8E7
:1017A0003450D7E720680068C007EED194F85C1089
:1017B0003F208840B860012084F8350084F8345018
:1017C0000020C7E790F83510022903D08021416539
:1017D00001207047052180F835100068016821F06C
:1017E00001010160002070472DE9F84304464FF0E5
:1017F0000009CDF8009063484FF41651A56D0068BC
:10180000B0FBF1F72E6894F85C10082000FA01F1A3
:1018100031420FD021680A6852070BD50A6822F0BE
:1018200004020A6094F85C108840A860606D40F083
:101830000100606594F85C104FF0010808FA01F0AF
:10184000304208D021684969090604D5A860606D56
:1018500040F00200606594F85C100420884030423B
:1018600008D021680968890704D5A860606D40F038
:101870000400606594F85C1010208840304218D055
:1018800021680968090714D5A86020680168490320
:1018900004D50068000308D5A16C07E00168C905FC
:1018A00003D4016821F008010160216C09B12046D0
:1018B000884794F85C1020208840304231D021685D
:1018C0000968C9062DD5A86094F835000528206858
:1018D000016806D0490347D5006800031DD4616C38
:1018E0001CE021F0160101602068416921F08001AF
:1018F0004161206C08B9A06C20B12068016821F01A
:101900000801016094F85C103F208840A86084F8CA
:10191000358084F83490216D1FE0E16B09B12046D9
:101920008847606D00282BD0606DC00714D005205B
:1019300084F835002068016821F0010101600098F9
:10194000401C0090B84203D820680068C007F6D158
:1019500084F8358084F83490E16C002910D001B00F
:101960002046BDE8F04308470168C905D5D40168A1
:1019700021F01001016084F8358084F83490CCE7C0
:10198000BDE8F883200000202DE9F041044600F076
:10199000A5F906465CB1022084F83500002584F8DC
:1019A00034502068016821F0010101600DE0012040
:1019B000BDE8F08100F092F9801B052805D92020B0
:1019C0006065032084F83500F2E720680068C007EE
:1019D000F0D12268116820480140D4E9010318437E
:1019E000D4E903363343184363691843A3691843A2
:1019F000E3691843236A18430843616A042903D141
:101A0000D4E90B1319430843106020684069666AE3
:101A100020F0070130460E43012704280CD1A06AAC
:101A20000643E06A40B12046FFF7A2F920B140200A
:101A3000606584F83570BAE7206846612046FFF794
:101A400083F994F85C203F2191408160656584F8BA
:101A500035700020ACE700003F8010F010B5184C46
:101A6000102818D020281FD0012813D105F0C4FA5F
:101A700001280FD004F12001606A05F0CDF8206A3A
:101A8000002807D00F494FF080500860BFF34F8FF8
:101A9000BFF36F8F10BD607840F001006070A078D8
:101AA00040F00100A07003E0207840F001002070B9
:101AB000E0780028EED0BDE8104004F0DBB800006C
:101AC0004801002004ED00E0044910B50A68024214
:101AD00002D00860FFF7C2FF10BD0000143C0140B7
:101AE0002DE9F84FDFF8BCA10022012503264FF0B5
:101AF0000F090AF1040BAAF1040E00BF0B6805FAE6
:101B000002F42340A34270D10F7907F00307012F9D
:101B100001D0022F16D187684FEA420806FA08FC66
:101B200027EA0C07D1F80CC00CFA08FC4CEA070CA9
:101B3000C0F808C04768A7430C79C4F30014944068
:101B40003C4344600C79E443A4070AD0C4684FEADC
:101B5000420C06FA0CF7BC438F6807FA0CF72743D0
:101B6000C7600C7904F00304022C12D1D40800EBF6
:101B7000840CDCF820405707FF0E09FA07F824EA26
:101B80000804D1F8108008FA07F848EA0408CCF8ED
:101B9000208004684FEA420C06FA0CF7BC430F7928
:101BA00007F0030707FA0CF7274307604C6814F4A3
:101BB000403F70D03C4C276847F48047276024683A
:101BC00022F0030704F480440094384C07EB040C23
:101BD000DCF8084897074FEA177809FA08F7BC437A
:101BE000334FB84202D1002724E054E0314FB842CD
:101BF00001D101271EE0304FB84201D1022719E080
:101C00002E4FB84201D1032714E02D4FB84201D125
:101C100004270FE02B4FB84201D105270AE02A4FD5
:101C2000B84201D1062705E0284FB84201D1072765
:101C300000E0082707FA08F72743CCF80878DAF815
:101C400000405746D1F804C09C435FEACC2C00D535
:101C50001C433C60DBF800405F46D1F804C09C4365
:101C60005FEA8C2C00D51C433C60DEF800407746D0
:101C7000D1F804C09C435FEA8C3C00D51C433C6017
:101C8000084F083F3C68D1F804C09C435FEACC3C55
:101C900000D51C433C60521C102AFFF42FAFBDE856
:101CA000F88F0000083C01404438024000300140F9
:101CB000000002400004024000080240000C024004
:101CC000001002400014024000180240001C0240B4
:101CD0000AB1816170470904FBE700000148806890
:101CE0007047000014000020024881680278114407
:101CF00081607047140000200B4810B5016841F462
:101D000000710160016841F480610160016841F483
:101D100080710160032000F073F80F2000F006F8D6
:101D200000F024F8002010BD003C024070B50D4DBD
:101D300004464FF47A712878B1FBF0F00A4909683B
:101D4000B1FBF0F000F0DDFC48B9102C07D2002206
:101D50002146501E00F034F800206C6070BD012058
:101D600070BD000014000020200000200C4882B04C
:101D7000016841F480410160006800F480400090F7
:101D80000748001F016841F080510160006800228F
:101D900000F0805000900F21901E02B000F010B8AB
:101DA00044380240002809DB00F01F020121914065
:101DB0004009800000F1E020C0F8001170470000E9
:101DC000F0B40E4B1B680C46C3F30223C3F10705A6
:101DD000042D00D90425191D072901D2002300E094
:101DE000DB1E012606FA05F1491E214099409E405E
:101DF000761E16403143F0BC02F0F2BC0CED00E060
:101E0000064900F0070208684FF6FF03184040EA51
:101E10000220034A10430860704700000CED00E008
:101E20000000FA052DE9F0470E46050065D0DFF801
:101E30001481D8F80000F7B200F00700B04207D2D2
:101E400088F80070D8F8000000F00700B04254D1C4
:101E500028683D4C810712D5400703D5206840F41F
:101E6000E05020602878000703D5206840F46040E7
:101E700020602068A96820F0F000084320602878DE
:101E8000C0072DD0304968680839012812D00228CF
:101E900013D0032811D00968890700292DDA216899
:101EA00021F0030101432160FFF718FF814641F251
:101EB000883A0EE009688903EFE709688901ECE7D1
:101EC000FFF70CFFA0EB0901514502D90320BDE843
:101ED000F0872068696800F00C00B0EB810FEFD14B
:101EE000D8F80010404601F00701B14207D9077049
:101EF000006800F00700B04201D00120E7E7287831
:101F0000400705D52068E96820F4E05008432060C8
:101F10002878000706D52068296920F4604040EA47
:101F2000C100206000F038F82168084AC1F30311AD
:101F3000515CC8400649086006480068FFF7F6FE95
:101F40000020C4E7003C0240083802401C7D000825
:101F50002000002018000020044805490068096896
:101F6000044AC1F38221515CC84070472000002020
:101F7000083802402C7D00080448054900680968BB
:101F8000044AC1F34231515CC84070472000002030
:101F9000083802402C7D0008154810B5006810F084
:101FA0000C02144813D01449042A0FD0082A0ED169
:101FB0000F4C241F2268236802F03F025B0207D502
:101FC0002068C0F38810A0FB010106E0084610BDA0
:101FD0002168C1F38811A1FB00010023FEF7C4F9B9
:101FE0002168C1F30141491C4900B0FBF1F010BD6B
:101FF000083802400024F400001BB7002DE9F84F18
:1020000004006ED02078DFF84C93C007A9F10405D6
:102010004AD009F104000168C1F38101012908D007
:102020000068C0F3810002280AD1D9F800004002FC
:1020300006D52868800337D560680028E1D033E0F2
:102040006068B0F5803F10D0B0F5A02F286810D0A0
:1020500020F480302860286820F4802028606068A0
:10206000A8B1FFF73BFE06460DE0286840F480303B
:10207000F4E740F480202860F7E700BFFFF72EFE6A
:10208000801B642873D828688003F7D50CE0FFF71D
:1020900025FE064605E000BFFFF720FE801B6428F2
:1020A000F0D828688003F7D42078DFF8AC82800766
:1020B0004FF0000A3ED5A748001D016811F00C0F33
:1020C00008D00068C0F3810002280BD1D9F80000C5
:1020D000400207D42868800716D5E068012800D19F
:1020E00012E033E1E068B8B10120C8F80000FFF762
:1020F000F5FD064605E000BFFFF7F0FD801B022856
:10210000C0D828688007F7D52868216920F0F80032
:1021100040EAC10028600DE0C8F800A0FFF7DEFD2E
:10212000064604E0FFF7DAFD801B02281FD8286866
:102130008007F7D42078000722D5864F8748616949
:10214000703771B101210160FFF7C8FD064604E058
:10215000FFF7C4FD801B022809D838688007F7D52F
:102160000EE0C0F800A0FFF7B9FD064605E082E0EA
:10217000FFF7B4FD801B02287DD838688007F7D4AC
:102180002078400768D5DFF8CCB100270BF13C0B75
:10219000DBF80000C0000BD4DBF8001041F08051E8
:1021A000CBF80010DBF80000012700F08050009011
:1021B0006B4E3068C00510D4306840F480703060D9
:1021C000FFF78CFD009005E0FFF788FD0099401AAD
:1021D000022850D83068C005F6D55E4EA0686C362F
:1021E00001280FD00528306810D020F001003060A1
:1021F000306820F004003060A068B8B1FFF76EFDD1
:1022000000900FE0306840F00100F4E740F0040077
:102210003060F7E7FFF762FD0099411A41F288301C
:10222000814266D830688007F4D50EE0FFF756FD8E
:10223000009007E0FFF752FD0099411A41F2883003
:10224000814256D830688007F4D42FB1DBF80010F3
:1022500021F08051CBF80010A069C8B33D49091D99
:102260000968C1F3810102294AD00228504607D0EB
:10227000C8F8600000E03CE0FFF730FD04463BE0BA
:102280004746C8F86000FFF729FD064605E000BF95
:10229000FFF724FD801B02282BD828688001F7D483
:1022A000D4E907010843A16A2E4A490802EB01411B
:1022B000626A41EA8211084394F82C1040EA0161F5
:1022C000C9F8001001203866FFF708FD044606E053
:1022D0003EE000BFFFF702FD001B022809D8286876
:1022E0008001F7D534E000BFFFF7F8FC001B02289F
:1022F00002D90320BDE8F88F28688001F4D427E0D4
:102300000128F7D0D9F80000E26900F48001914279
:102310001CD1226A00F03F01914217D147F6C071EB
:10232000626A0140B1EB821F10D1A26A4FF0FF3305
:1023300000F4403103EB5202B1EB024F06D194F8A6
:102340002C1000F07060B0EB016F01D00120D1E7DC
:102350000020CFE70438024000004742800E474289
:10236000007000400000FFFF70B5040009D0606AF3
:10237000002540B125616561A56294F8510040B126
:102380000CE0012070BD6068B0F5827FF4D0E5619B
:10239000F2E784F85050204600F044F8022084F818
:1023A00051002068016821F040010160A088218966
:1023B00000F4827001F404410843A18901F4006132
:1023C0000843217C01F002010843217D01F0010155
:1023D0000843218B01F400710843217F01F038018B
:1023E000084394F8201001F080010843218D01F486
:1023F0000051084321680860A069042101EA1040E7
:1024000094F8241001F01001084321684860206806
:10241000C16921F40061C1616565012084F8510042
:10242000002070BD2DE9F04387B0064614216846B0
:10243000FEF762F834493068884261D1334800259C
:10244000016841F480510160006800F480500590FB
:102450002E481438016841F002010160016801F062
:1024600002010591016841F0010101600068022448
:1024700000F001000590182001274FF003084FF0ED
:1024800005098DE8910369462148FFF729FB802063
:102490008DE8910369461F48FFF722FB1F4C1E4839
:1024A0004FF0C0672060C4E901754FF48068C4E94B
:1024B000035865617812A561C4E90750204665623A
:1024C000FFF762FA08B1FEF791FCF464A663134CBF
:1024D000114860344830E4E802074020A4E82101B4
:1024E000C00244F81459A561C4E907500B4865625D
:1024F0006030FFF749FA08B1FEF778FCB464A663D0
:1025000007B0BDE8F08300000030014044380240CD
:102510000004024000000240106402400005002058
:102520002DE9F84F044690F8500000270A9E1D46FA
:1025300092468B464FF0010901280ED0012084F805
:102540005000FFF7CBFB804694F8510061680128EA
:102550000CD0B1F5827F07D102E00220BDE8F88FF0
:10256000A16809B9042801D00227C2E0BBF1000F1D
:1025700027D0BAF1000F24D01DB394F851000428DD
:1025800002D0052084F8510000206065C4F838A00E
:10259000E587A587C4F830B0E586A5862064606429
:1025A00020680168490603D4016841F040010160D8
:1025B000E068B0F5006F606805D0E8B3012D46D043
:1025C0007FE0012795E008B1012D39D1206B21680A
:1025D0000088C860206B801C2063E08E401EE0866F
:1025E0002EE02068816889070FD5E18E69B1B9F1C5
:1025F000010F0AD1216B0988C160206B801C206308
:10260000E08E401EE0864FF0000920688168C9070F
:102610000CD0E18F51B1C068A16B0880A06B801C09
:10262000A063E08F401EE0874FF00109FFF756FBE3
:10263000A0EB0800B04200E009E001D3701C50D1CB
:10264000E08E0028CDD1E08F0028CAD13FE0206B7A
:10265000216800780873206B401C2063E08E401EC8
:10266000E0862EE02068816889070FD5E18E69B188
:10267000B9F1010F0AD1216B09780173206B401C5D
:102680002063E08E401EE0864FF0000920688168DC
:10269000C9070CD0E18F51B1C068A16B0870A06B65
:1026A000401CA063E08F401EE0874FF00109FFF758
:1026B00015FBA0EB0800B04202D3701C01D010E063
:1026C0007EB1E08E0028CDD1E08F0028CAD14246ED
:1026D0003146204601F0B8FB28B101272020606573
:1026E00007E0032705E0A06818B92068C168806882
:1026F0000090012084F85100002084F850003846F2
:102700002CE710B5401EB0F1807F01D3012010BD31
:102710004FF0E02460610F21601702F061F80020A3
:10272000A06107202061002010BD704770470000A5
:1027300070B590F83C20012A32D0012480F83C404A
:10274000022280F83D2003685A689D6822F07006D6
:102750000A6832435A60134B02689A4214D0B2F1AD
:10276000804F11D0104B9A420ED0104B9A420BD092
:102770000F4B9A4208D00F4B9A4205D00E4B9A420B
:1027800002D00E4B9A4204D1496825F080031943C8
:10279000916080F83D40002180F83C10084670BDF3
:1027A000022070BD0000014000040040000800400D
:1027B000000C0040000401400040014000180040AF
:1027C00010B5040003D094F83D0010B107E00120DB
:1027D00010BD002084F83C00204600F01FF80220C5
:1027E00084F83D00211D206801F040FC012084F8A0
:1027F000460084F83E0084F83F0084F8400084F8E6
:10280000410084F8420084F8430084F8440084F8CE
:10281000450084F83D00002010BD000008B5324A94
:1028200001683248914210D1016841F00101016014
:102830000068002200F00100009005211820FFF739
:10284000BFFA1820FFF7AEFA44E0B1F1804F19D07B
:10285000274A914221D1016841F0020101600068DC
:10286000002200F00200009005212B20FFF7A8FABB
:102870002B20FFF797FA002205212C20FFF7A0FA62
:102880002C202DE01948001F016841F00101016072
:10289000006800F00100009008BD164A91420ED178
:1028A000016841F4803101600068002200F480304A
:1028B000009005211820FFF783FA182010E00E4A37
:1028C0009142E9D1016841F400310160006800F4EF
:1028D00000300090002205211920FFF771FA19201D
:1028E000BDE80840FFF75EBA0000014044380240EE
:1028F00000040140004001400044014090F83D10B8
:10290000012901D001207047022180F83D100168A3
:10291000CA6842F00102CA6000681149884214D0B6
:10292000B0F1804F11D00F4988420ED00E49884235
:102930000BD00E49884208D00D49884205D00D4978
:10294000884202D00C49884204D1816801F0070115
:10295000062903D0016841F00101016000207047A1
:10296000000001400004004000080040000C00404E
:1029700000040140004001400018004070B50446CA
:1029800090F83C000025012817D0012684F83C600F
:10299000022084F83D002068826822F0770222F449
:1029A0007F4282600868502838D00DDC20284FD044
:1029B00005DC90B3102811D14AE0022070BD302808
:1029C00046D040280AD13BE060282FD070280DD097
:1029D000B0F5805F03D0B0F5005F12D0012584F818
:1029E0003D60002084F83C00284670BDCB68D1E9EA
:1029F0000121206801F09EFB2068816841F0770189
:102A000009E0CB68D1E90121206801F093FB20683F
:102A1000816841F480418160E1E719E0CA68496852
:102A2000206801F05BFC5021206806E0CA68496814
:102A3000206801F064FC6021206801F085FBCEE78E
:102A4000CA684968206801F049FC40212068F4E721
:102A5000226801461046F0E7704770B504460068EA
:102A600001694FF00005C943890715D4C168C943FE
:102A7000890711D4E91E016101202077206880694F
:102A80008007204602D0FFF7E7FF04E000F0C2F81D
:102A9000204600F054F9257720680169C9434907A9
:102AA00017D4C168C943490713D46FF00401016109
:102AB000022020772068806910F4407F204602D0F1
:102AC000FFF7CAFF04E000F0A5F8204600F037F950
:102AD000257720680169C943090716D4C168C9432D
:102AE000090712D46FF008010161042020772068E3
:102AF000C0698007204602D0FFF7AEFF04E000F077
:102B000089F8204600F01BF9257720680169C94340
:102B1000C90617D4C168C943C90613D46FF01001A0
:102B20000161082020772068C06910F4407F2046AA
:102B300002D0FFF791FF04E000F06CF8204600F0AF
:102B4000FEF8257720680169C943C90708D1C16823
:102B5000C943C90704D1891E0161204600F0F0F87D
:102B600020680169C943090609D4C168C943090637
:102B700005D46FF0800101612046FFF7D6FD206883
:102B80000169C943490609D4C168C943490605D446
:102B90006FF040010161204600F0D3F82068016920
:102BA000C94389060BD4C168C943890607D46FF0AD
:102BB000200101612046BDE87040FFF7B7BD70BD40
:102BC00010B586B0044614216846FDF795FC0E4901
:102BD0002068884215D10D48016841F0200101604C
:102BE0000068012100F020000590402000900220A4
:102BF000CDE9010103900320049069460448FEF7E3
:102C00006FFF06B010BD00000044014030380240A4
:102C100000140240704770B5044690F83C0000264E
:102C20000D4601280FD0012084F83C006AB1042A27
:102C30001DD0082A2FD00C2A3FD00126002084F86E
:102C40003C00304670BD022070BD206801F084FA5F
:102C50002068816941F0080181612068816921F063
:102C600004018161206881692A69114311E02068AB
:102C700001F0A2FA2068816941F400618161206855
:102C8000816921F480618161206881692A6941EA52
:102C900002218161D2E7206801F0C4FA2068C1698D
:102CA00041F00801C1612068C16921F00401C161DE
:102CB0002068C1692A69114311E0206801F0E6FA31
:102CC0002068C16941F40061C1612068C16921F4D3
:102CD0008061C1612068C1692A6941EA0221C1613C
:102CE000ACE710B5040003D094F83D0010B107E044
:102CF000012010BD002084F83C00204600F01EF8A2
:102D0000022084F83D00211D206801F0AFF9012068
:102D100084F8460084F83E0084F83F0084F84000C0
:102D200084F8410084F8420084F8430084F84400A9
:102D300084F8450084F83D00002010BD70477047BE
:102D400070477047704710B504460068406994F8B2
:102D50003D10C0F3C010212911D180B1206814307A
:102D600050E8001F21F0800140E80012002AF5D150
:102D7000606B08B1FEF7DDFC204601F001FB206826
:102D8000406994F83E10C0F38010222911D180B11F
:102D90002068143050E8001F21F0400140E8001284
:102DA000002AF5D1A06B08B1FEF7C3FC204601F064
:102DB000C0FA002010BD7047F8B5016804460868E5
:102DC000CA684B6910F00F0F4FF0000559D003F09F
:102DD000010602F49077374365D0C10705D0D105CD
:102DE00003D5216C41F001012164410705D5D907C4
:102DF00003D0216C41F002012164810705D5D90778
:102E000003D0216C41F004012164010707D502F0D1
:102E10002001314303D0216C41F008012164216C71
:102E200000293AD0800604D5900602D5204601F04C
:102E3000B5FA20684069216CC0F38010090700D4FE
:102E400060B3204601F075FA20684069400621D53C
:102E50002068143050E8001F21F0400140E80012C3
:102E6000002AF5D1A06BA8B16C490165A06BFEF7F3
:102E7000A9FC002811D0A06B016D01B0BDE8F040A5
:102E8000084783060FD593060DD52046BDE8F840C8
:102E900001F084BA2046FFF78EFFF8BD2046FFF709
:102EA0008AFF2564F8BD266B2023012E79D1C60642
:102EB00077D5D60675D508684868009048694006F9
:102EC00040D5A16B086840680004000CEAD0A28DD0
:102ED0008242E7D9E085C869B0F5807F2DD02068AF
:102EE0000C3050E8001F21F4807140E80012002AE5
:102EF000F5D12068143050E8001F21F0010140E8AE
:102F00000012002AF5D12068143050E8001F21F08B
:102F1000400140E80012002AF5D184F83E302563D4
:102F200020680C3050E8001F21F0100140E800122A
:102F3000002AF5D1A06BFEF7FCFBA08DE18D401AB5
:102F400081B229E0A08DE18D401A81B2E08D002888
:102F5000A8D00029A6D020680C3050E8002F22F419
:102F6000907240E80026002EF5D12068143050E819
:102F7000002F22F0010240E80026002EF5D184F84F
:102F80003E30256320680C3050E8002F22F01002FC
:102F900040E80023002BF5D12046FFF7D3FEF8BD13
:102FA000FFE705062BD5150629D594F83D00212805
:102FB000F5D1A068B0F5805F01D12069B0B1206A79
:102FC000411C2162216800784860E08C401E0004AA
:102FD000000CE084E3D12068C16821F08001C16069
:102FE0002068C16841F04001C160D8E7206A0088CC
:102FF000C0F308004860206A801C2062E5E74006B4
:10300000CDD55006CBD5CA68204622F04002CA6012
:1030100084F83D3000F0A5F9C1E700002343000823
:1030200070B5040004D094F83D00002510B106E00E
:10303000012070BD84F83C50204600F023F8242085
:1030400084F83D002068C16821F40051C160204629
:1030500001F004FA2068016921F4904101612068BF
:10306000416921F02A0141612068C16841F40051A1
:10307000C1602564202084F83D0084F83E000020D3
:1030800070BD00002DE9F04F87B00446142168465A
:10309000FDF732FAA748DFF898821438D4F800C058
:1030A000A44B022103224027002506154FF00709F3
:1030B000C44572D1D3F800C0AA464CF0100CC3F836
:1030C00000C01B6803F010030593036843F002037C
:1030D0000360036803F002030593036843F00103F0
:1030E00003600068884600F0010005908020CDE96B
:1030F0000008CDE9025293466946CDF810908E48FB
:10310000FEF7EEFC7010CDE90008CDE9025B6946E0
:10311000CDF810908948FEF7E3FCDFF82882884953
:1031200040464FF00069C8F80010C0E90195C0E9B9
:103130000356C8F814504FF4403BC8F81850C8E97B
:10314000075BC8F82450FEF71FFC08B1FDF74EFEE0
:103150007C4DC4F838807A486035C8F83840303043
:10316000AF60C5E90009C5E903A6C5F814A0C5F814
:1031700018A0C5E907AB2846C5F824A0FEF704FC53
:1031800008B1FDF733FE6563002205212520AC63FD
:10319000FEF716FE252064E0FFE7DFF8AC81C445AA
:1031A00064D1644BAA461B1FD3F800C04CF4802C9A
:1031B000C3F800C01B6803F480230593036843F041
:1031C00004030360006800F0040005904FF44060C1
:1031D0008DE82300CDE9032969465C48FEF780FCB1
:1031E000DFF860915A4909F1C00948464FF000687C
:1031F000C9F80010C0E90185C0E90356C9F81450A8
:10320000C9F81850C9F81C50C9F82050C9F8245002
:10321000FEF7BAFB08B1FDF7E9FD4E4DC4F8389052
:103220004B48C9F838403030AF60C5E90008C5E9FF
:1032300003A6C5F814A0C5F818A0C5F81CA0C5F8C9
:1032400020A02846C5F824A0FEF79EFB08B1FDF794
:10325000CDFD6563002205212720AC63FEF7B0FD9C
:103260002720FEF79FFD07B0BDE8F08FDFF8E8806C
:10327000C445F8D1D3F800C04CF0200CC3F800C00E
:103280001B6803F020030593036843F040030360C9
:10329000006800F0400005904FF484408DE8230062
:1032A0000820CDE9032069462C48FEF719FCDFF819
:1032B000A480234908F16008603940464FF0206A35
:1032C000C8F80010C0E901A5C0E90356C8F81450B9
:1032D000C8F81850C8F81C50C8F82050B146C8F8B3
:1032E0002450FEF751FB08B1FDF780FD194EC4F8DC
:1032F0003880C036C8F83840C6E90275C6E904957A
:10330000B5610F48F561356218307562C6E9000A8B
:103310003046FEF739FB08B1FDF768FD6663002211
:1033200005214720B463FEF74BFD472099E70000D5
:1033300000100140443802400004024000000240F6
:1033400088640240F4070020004800400008024062
:1033500028600240140900200014014000180240B7
:1033600070477047FEE700000F4810B50D49016037
:103370000321416000214FF410228160C0E9031253
:103380004FF400124261017641768176C176017771
:103390004177FDF7DEFF002803D0BDE81040FDF7C0
:1033A00025BD10BD00640040580400200F4810B532
:1033B0000D4901600321416000214FF4102281601A
:1033C000C0E903124FF40012426101764176817622
:1033D000C17601774177FDF7BCFF002803D0BDE837
:1033E0001040FDF703BD10BD0068004080040020C0
:1033F000294808B5016841F480010160016801F4C1
:1034000080010091016841F4001101600068002210
:1034100000F40010009005210C20FEF7D1FC0C20D8
:10342000FEF7C0FC002205210E20FEF7C9FC0E208D
:10343000FEF7B8FC002205213820FEF7C1FC382039
:10344000FEF7B0FC002205213920FEF7B9FC392037
:10345000FEF7A8FC002205213B20FEF7B1FC3B2033
:10346000FEF7A0FC002205214420FEF7A9FC442021
:10347000FEF798FC002205214520FEF7A1FC45201F
:10348000FEF790FC002205214620FEF799FCBDE8DE
:1034900008404620FEF786BC3038024010B59CB08C
:1034A0001C2216496846FCF7F5FF0021684602F029
:1034B0005DFE134C11491C2220601C3107A8FCF74B
:1034C000E9FF002107A802F051FE0C4960601C22B0
:1034D00038310EA8FCF7DEFF00210EA802F046FEF0
:1034E0000649A0601C22543115A8FCF7D3FF002127
:1034F00015A802F03BFEE0601CB010BDA47C0008E3
:1035000000000020F0B587B014216846FCF7F4FFF6
:103510004648016841F002010160016801F00201C2
:103520000591016841F040010160016801F040012E
:103530000591016841F001010160016801F001019C
:103540000591016841F008010160016801F008017E
:103550000591016841F004010160016801F0040176
:103560000591016841F080010160016801F080016E
:103570000591016841F02001016000682C4E00F0C7
:1035800020000590012210213046FEF7A1FB294FB3
:10359000012241F201013846FEF79AFB0124102076
:1035A000CDE90004022569463046CDE90245FEF723
:1035B00097FA30204FF48816CDE900066946029448
:1035C0001D48FEF78DFACDE9004669461B48029476
:1035D000FEF786FA2003CDE90004029469463846D6
:1035E0000394FEF77DFA0094694638460194CDE9CC
:1035F0000245FEF775FA002205210620FEF7E0FBE2
:103600000620FEF7CFFB002205210A20FEF7D8FB9B
:103610000A20FEF7C7FB002205211720FEF7D0FB8A
:103620001720FEF7BFFB07B0F0BD000030380240A6
:10363000000002400004024000080240001802405E
:10364000104810B50E4901604FF4827141600021AD
:1036500002228160C0E903120122426152028261AA
:103660001022C0E90721416281620A21C162FEF78E
:103670007BFE002803D0BDE81040FDF7B7BB10BDAE
:1036800000300140A804002010B588B01C21684615
:10369000FCF732FF144813490024C0E900144FF628
:1036A000FF71C0E9024104618461FFF789F808B144
:1036B000FDF79CFB0C48FFF714FB08B1FDF796FBE8
:1036C0006020CDE900040294002269460648049473
:1036D000FFF7A1FA08B1FDF789FB0348FFF770FA7D
:1036E00008B010BD00440140E006002010B586B0CF
:1036F00000241848009401940294039404941449FB
:103700000594016044F29F11C0E9011442F20F7167
:10371000C0E9031444618461FFF752F808B1FDF772
:1037200065FB4FF48050009069460A48FFF726F980
:1037300008B1FDF75BFB049404A906480594FEF765
:10374000F7FF002801D0FDF751FB06B010BD0000C7
:1037500000000140C005002010B586B000241648C6
:10376000009401940294039404944FF080410594D2
:10377000016042F2D001C0E901146321C0E90314E1
:103780008461FFF71DF808B1FDF730FB4FF480505E
:10379000009069460848FFF7F1F808B1FDF726FBED
:1037A000049404A904480594FEF7C2FF002801D040
:1037B000FDF71CFB06B010BD0806002010B586B052
:1037C000002417480094019402940394049413492C
:1037D0000594C0E900144FF6FF71C0E9024104618D
:1037E00044618461FEF7ECFF08B1FDF7FFFA4FF486
:1037F0008050009069460A48FFF7C0F808B1FDF70D
:10380000F5FA049404A906480594FEF791FF0028F0
:1038100001D0FDF7EBFA06B010BD00000004014036
:10382000500600201FB5002110480091019102911F
:103830000D4A0391026044F29F12C0E90121632204
:10384000C0E903218161FEF7BBFF08B1FDF7CEFAA5
:103850004FF48050009069460448FFF78FF8002825
:1038600001D0FDF7C3FA1FBD0040014098060020BB
:103870000C4810B50A4901604FF4E1314160002164
:1038800081600C22C160C0E904128161C161FFF74F
:10389000C7FB002803D0BDE81040FDF7A7BA10BD54
:1038A00000100140280700200C4810B50A490160AB
:1038B0004FF4E1314160002181600C22C160C0E918
:1038C00004128161C161FFF7ABFB002803D0BDE8A2
:1038D0001040FDF78BBA10BD004800406C07002077
:1038E0000C4810B50A4901604FF4E13141600021F4
:1038F00081600C22C160C0E904128161C161FFF7DF
:103900008FFB002803D0BDE81040FDF76FBA10BD53
:1039100000140140B0070020F5EEC01AB0EE413AA5
:10392000F0EE603AB0EE404AF1EE10FA00B5024611
:1039300009D1B5EEC02AF1EE10FA04D1F5EEC02A95
:10394000F1EE10FA78D021EEA10A02EE020A02EEA0
:10395000A20A02F04FFB21EE805A62EE004A92ED7D
:10396000011AD2ED030A22EE800AD2ED002A21EEDE
:10397000202AD2ED021A22EE811A5C4802EEE12AD8
:1039800001EEA01AF6EE001A52EEA21A40EEA01AAC
:1039900060EE020A64EEA12A45EE610A40EE412A79
:1039A00025EE010A90ED041A04EEC20AB5EEC01A23
:1039B000F1EE10FA2CDD90ED041AD0ED051A21EE8F
:1039C000222A9FED4B1A42EE011AC0ED051AD0EDE6
:1039D000041A21EEA02AD0ED061A42EE011AC0ED1B
:1039E000061AD0ED041A21EE802AD0ED071A42EE15
:1039F000011AC0ED071A90ED051A34EE014A90ED58
:103A0000061A73EE813A90ED071A33EE013A07E099
:103A10009FED381A80ED051A80ED061A80ED071A21
:103A200090ED031A01EE224A90ED031A41EE203A7E
:103A3000D0ED030A00EE803A9FED2F0AD2ED021A74
:103A400024EE002A63EE802A23EE001A92EC020A8A
:103A500092ED033A60EEC23A41EEE23A43EE413A69
:103A600073EE804A60EE023AC2ED004A41EE813ABE
:103A700043EE623A33EEA04A60EE223A20EE010AAB
:103A800082ED014A40EEC13A00EEA20A43EE023A4C
:103A900001EEC20A73EEA13A70EE030A24EEA40A04
:103AA000C2ED023AC2ED030A04EE040A03EEA30AD1
:103AB00000EEA00A02F09EFAD2ED000A60EE800A43
:103AC000C2ED000AD2ED010A60EE800AC2ED010AE1
:103AD000D2ED020A60EE800AC2ED020AD2ED030ABC
:103AE00020EE800A82ED030A00BD0000480100209C
:103AF0006F12833A000000006F12033AFEE7FEE700
:103B0000A0B1D0ED101AC0ED111A90ED0F1A80ED92
:103B1000101AC0ED060A80ED070A30EEC00A80EDEB
:103B20000F0A017829B101293BD078E09FED3D0AC9
:103B30007047D0ED010A60EE801AC0ED091AD0ED91
:103B40000A0A90ED022A42EE000A30EE410AC0ED68
:103B50000A0A90ED0D2A80ED0E2A90ED0C2A80EDD8
:103B60000D2A80ED0C0A90ED031A21EE001A80ED6B
:103B70000B1A90ED050AF4EEC00AF1EE10FA09DC1A
:103B8000B1EE400AF4EEC00AF1EE10FA02D390ED65
:103B90000A0A01E080ED0A0A31EE800A30EE010ADD
:103BA0002BE070EE410A90ED012A20EE822A80ED92
:103BB000092AD0ED020A60EE800AC0ED0A0AD0EDB3
:103BC0000D2A72EE200AC0ED0E2AD0ED0C2AC0EDAF
:103BD0000D2AF0EE002A01EE620A30EE210A80ED95
:103BE0000C0A90ED031A21EE000A80ED0B0A30EE6C
:103BF000800AD0ED080A30EE200A80ED080AD0EDE8
:103C0000040AB4EEE00AF1EE10FA06DCF1EE600A06
:103C1000B4EEE00AF1EE10FA01D2C0ED080A90ED20
:103C2000080A704700000000002828D0002A26D08B
:103C3000017092ED001A80ED011A92ED011A80EDEB
:103C4000021A92ED021A80ED031A80ED040A9FED2C
:103C50000C0AC0ED050A80ED0E0A80ED0D0A80ED1C
:103C60000C0A80ED080A80ED0B0A80ED0A0A80ED4F
:103C7000090A80ED110A80ED100A80ED0F0A7047E5
:103C8000000000002DE9F74F8E462F4908680368B1
:103C900023F0010303602D4803681C6824F001042D
:103CA0001C600B681C68E407F7D103E01C6824F073
:103CB00001041C6003681C68E407F7D1244F254DFC
:103CC000DFF88CC04C3FDFF88CB00C68DFF88490D4
:103CD000B83D4FF40016A7F1040AABF1600B644540
:103CE00001D93E6009E04C4502D9CAF8006004E001
:103CF0005C4501D9EE6000E0AE60D0F800804FF086
:103D00000066E04501D93E6009E04B4502D9CAF89A
:103D1000006004E05B4501D9EE6000E0AE60C4F8ED
:103D20000CE00468009BE3600B685A6003685A600B
:103D300009680A6842F001020A600068016841F0FF
:103D400001010160BDE8FE8F000500206005002034
:103D500058640240B86002402DE9F04F8346344871
:103D600003685C6844F002045C6003685C6844F0CB
:103D700001045C600068036843F0400303602D4861
:103D800003681C6824F001041C6003681C68E407D5
:103D9000F7D1294E294C284D4C3EDFF8A0A0274FE3
:103DA000B83C4FF4001CA6F10409AAF1600AAB422A
:103DB00002D9C6F800C00BE0BB4202D9C9F800C066
:103DC00006E0534502D9C4F80CC001E0C4F808C0AD
:103DD000DFF86CC0C3F808C00368D96001684A60A6
:103DE0000068016841F010010160164801680B6825
:103DF00023F001030B6001680B68DB07F7D14FF07C
:103E00000063A94201D9336009E0B94202D9C9F877
:103E1000003004E0514501D9E36000E0A360C1F83F
:103E200008C00368C3F80CB000684260BDE8F08FBA
:103E3000A80400200005002058640240B860024039
:103E40000C3001406005002038B504461248134B81
:103E50000068B0FBF3F04FF47A7358430090606849
:103E6000B0F5827F0DD10B460092002280212046C2
:103E700000F016F870B1606D40F02000606503201E
:103E800038BD009830B1401E009020688068C04363
:103E90000006F6D5002038BD2000002000366E0157
:103EA0002DE9F8431E46914688460446089DFDF7D5
:103EB00015FF401B351AFDF711FF0746254800681E
:103EC000C0F3CB30684338E0701C37D0FDF706FFF5
:103ED000C01BA84203D215B1009860B32CE0206843
:103EE000416821F0E00141606068B0F5827F0BD14C
:103EF000A068B0F5004F02D0B0F5806F04D1206803
:103F0000016821F040010160A06AB0F5005F09D1AD
:103F10002068016821F4005101602068016841F4C3
:103F200000510160012084F85100002084F8500005
:103F30000320BDE8F8830025401E009020688168BA
:103F400038EA010004D000214945BDD10020F0E746
:103F50000121F9E720000020012002F0FBF8FBE737
:103F600010B5FDF7C1FE03F047F8012803D0BDE806
:103F7000104002F091BF10BD30B593B030216846BB
:103F8000FCF7BAFA14210CA8FCF7B6FA1D48002574
:103F9000016841F080510160006800F0805011908C
:103FA0001948016841F4804101600068022400F46E
:103FB0008040119001200090000401908001CDE923
:103FC000064006200890A820CDE9090404200B90A3
:103FD0006846FEF713F808B172B6FEE70CA90F2089
:103FE00081E831004FF4A0500F904FF480501090B2
:103FF00005210CA8FDF716FF002801D072B6FEE7D8
:1040000013B030BD403802400070004002480168E3
:1040100041F470010160704788ED00E010B504487C
:10402000FEF71BFDBDE810400248FEF716BD00007C
:10403000C00500209806002010B50448FEF70DFDCD
:10404000BDE810400248FEF708BD0000C005002092
:10405000E00600200148FEF700BD000050060020E9
:104060000148FEF7FABC000050060020F0B50268D7
:10407000254C264D264E274F274B4FF0804CA04213
:1040800009D0604507D0A84205D0B04203D0B8425D
:1040900001D0984204D122F0700E4A6842EA0E0222
:1040A000A0421BD0604519D0A84217D0B04215D00D
:1040B000B84213D0984211D0184DA8420ED0184DD6
:1040C000A8420BD0174DA84208D0174DA84205D0E2
:1040D000164DA84202D0164DA84203D122F44075D5
:1040E000CA682A434D6922F080022A4302608A6826
:1040F000C2620A688262A04201D0984201D1096975
:10410000016301214161F0BD000001400004004055
:1041100000080040000C0040000401400040014045
:10412000004401400048014000180040001C0040CD
:104130000020004010B5846842EA032224F47F4442
:104140000A432243826010BD826822F070020A4353
:1041500042F0070181607047F0B5026A22F0010267
:104160000262036A42688469124E24F073050C6887
:104170002C4323F002058B682B430D4DA84201D040
:10418000B04205D123F00807CB683B4323F004037A
:10419000A84201D0B04205D14D6922F440721543C6
:1041A0008A692A4342608461496841630362F0BDC1
:1041B0000000014000040140F0B5026A22F0100244
:1041C0000262026A436884690D6824F4E64444EAA2
:1041D00005248D6822F0200242EA05120F4D104E90
:1041E000A84201D0B04206D1CF6822F0800242EA54
:1041F000071222F04002A84201D0B04207D14D6917
:1042000023F4406343EA85038D6943EA85034360F1
:104210008461496881630262F0BD000000000140D2
:1042200000040140F0B5026A22F480720262026A60
:104230004368C46922F4007224F073050C68124EBE
:104240002C438D6842EA05220E4DA84201D0B042AF
:1042500006D1CF6822F4006242EA072222F480628B
:10426000A84201D0B04207D14D6923F4405343EA3C
:1042700005138D6943EA05134360C4614968C1634E
:104280000262F0BD000001400004014030B5026A46
:1042900022F480520262046A4268C3690D6823F402
:1042A000E64343EA05238D6824F4005444EA0534C8
:1042B000084DA84202D0084DA84204D14D6922F40D
:1042C000804242EA85124260C36149680164046227
:1042D00030BD0000000001400004014010B5036A39
:1042E000046A24F001040462846924F0F00444EABE
:1042F000021423F00A020A438461026210BD10B561
:10430000036A23F0100303628369046A23F4704391
:1043100043EA023224F0A00343EA01118261016200
:1043200010BD10B5806B0021C185C184FEF743FD2F
:1043300010BD01680C3151E8002F22F4907241E861
:104340000023002BF5D10168143151E8002F22F031
:10435000010241E80023002BF5D1016B012909D1AD
:1043600001680C3151E8002F22F0100241E80023CF
:10437000002BF5D1202180F83E1000210163704709
:1043800001680C3151E8002F22F0C00241E80023FF
:10439000002BF5D1202180F83D10704708B590F82A
:1043A0003E10222901D0022008BD82684FF48053BC
:1043B0009A4201D1016921B1816A9A421BD04AB166
:1043C0000AE00268816A5268C2F308020A80816AC0
:1043D000891C08E0026972B10268526802F07F022B
:1043E0000A70816A491C8162C18D491E0904090C49
:1043F000C18503D019E002685268F1E70168CA6814
:1044000022F02002CA600168CA6822F48072CA6081
:1044100001684A6922F001024A61202180F83E10B9
:10442000016B012903D0FEF79BFF002008BD00218E
:10443000016301680C3151E8002F22F0100241E8BD
:104440000023002BF5D101680A68D20602D50A685C
:1044500049680091818DFEF775FCE6E770B504466A
:1044600000680169E26821F440511143016121694A
:10447000A068E26908436169114308432168CA687A
:1044800049F20C639A430243CA6020684169A269F9
:1044900021F440711143416131492068884202D0C2
:1044A0003049884202D1FDF767FD01E0FDF754FD78
:1044B000E2690023192164253226B2F5004F6268B3
:1044C00028D0A0FB0101930F9200FBF74DFF01469E
:1044D000B0FBF5F06FF01802504301EB800006EBE3
:1044E0000010B0FBF5F000F0F002B1FBF5F002EBCC
:1044F0000012B1FBF5F06FF01803584301EB800098
:1045000006EB0010B0FBF5F000F00F00216810443E
:10451000886070BDA0FB010192185B41FBF724FF8E
:104520000146B0FBF5F00201B1FBF5F06FF01803A6
:10453000584301EB800006EBC000B0FBF5F000F043
:10454000F80002EB4002B1FBF5F0584301EB8000AC
:1045500006EBC000B0FBF5F000F00700D6E7000066
:1045600000100140001401400D4808B500680168C2
:10457000C1F3001171B10168406800900848FEF76E
:10458000E2FB084800684068C0F164010648016029
:1045900001214160BDE808400148FEF70DBC000064
:1045A00028070020F4070020BC00002010B50448B4
:1045B000FCF708FCBDE810400148FEF7FDBB000019
:1045C0006C0700200C4808B501680A684A68009228
:1045D000CA6842F01002CA6001684A6942F04002AB
:1045E0004A61122100910168044B806BA3F118020B
:1045F000091DFCF787FA08BD6C070020DC48002085
:1046000070B5044600884C4DC0F30A032B806078D7
:10461000A178C00840EA4110C0F30A016980A0787F
:10462000E278800940EA82002279A3F5806340EABB
:104630008220C0F30A02AA8020796679400840EA05
:10464000C610C0F30A06EE806079A1F58061C0F360
:104650000110A8726079A2F580628009E872E08892
:10466000A8812089E88160892882207BA874607BEA
:10467000E874E089A882208A2B806980AA80A6F548
:104680008066EE80A0F5806028812C4E0020215CA1
:104690003154401C0728FADD3321284801F064F822
:1046A00008203218215C401C02F8081C0F28F8DD95
:1046B0003421224801F058F8207C3070607C707002
:1046C000A07CB0701D48A17B223801F0010242801D
:1046D00001F00202828001F00402C28001F00802AF
:1046E000028101F04002428101F08002828101F0EA
:1046F0001002C28101F020010182A97C0170E97CD5
:104700004170A98A01F48072428201F400728282AF
:1047100001F48062C28201F40062028301F48052DB
:10472000428301F40052828301F48042C28301F487
:104730000041018470BD0000F4480020B200002058
:104740000148FEF739BB0000B00700200C4808B54F
:1047500001680A684A680092CA6842F01002CA609A
:1047600001684A6942F040024A61C821009101682B
:10477000044B806BA3F1C802091DFCF7C3F908BD07
:10478000B0070020FC470020FEE703B40198410079
:10479000009850EAC12018BF04204A0D18BF40F00D
:1047A000010040F2FF72B2EB515F08BF40F002001F
:1047B000012808BF052002B070474100080218BF59
:1047C00004200A0E18BF40F001004FF07F4232EA89
:1047D000010108BF40F00200012808BF0520704712
:1047E0000907090E002804DB00F1E02080F800141E
:1047F000704700F00F0000F1E02080F8141D7047B2
:1048000010B54FF00E402DED028BB0EE408A18EE41
:10481000104A00EB4400B0F1506F4AD84FF0FC4012
:10482000B0EB440F22D2B0EEC80AF7EE000A30EE29
:10483000C00AF6EE000A60EE208A18EE900A02F036
:1048400031F801EE100A14F0004F1DBFDFED2D0A04
:104850009FED2D0AB1EE411ADFED2C0A08BF9FED46
:104860002C0AF8EE001A21EE218A05E0DFED290A74
:1048700068EE088AB0EE600A9FED271ADFED271A6E
:1048800030EE080A48EE811A9FED251A08EEA11AAB
:10489000DFED241A48EE811A9FED231A08EEA11AC3
:1048A00068EE281ABDEC028B01EE810A30EE200A78
:1048B00010BD4FF0E440B0EB440F0CD918EE100AD5
:1048C000FFF77BFF042808BF00F06CFCB0EE480A3D
:1048D000BDEC028B10BD4FF07F40B0EB440F07D210
:1048E000B0EE480ABDEC028BBDE8104000F04CBCB5
:1048F0000120FBF730FEBDEC028BBDE8104000F05C
:1049000049BC00000000C9BF22AAFDB90000C93F90
:1049100022AAFD390000000024FE1C3DC78AD83CB5
:104920001E67383D1B93993DAFAA2A3E0000000048
:1049300070B59B482DED020B2DED068B079D25F0E4
:104940000044A04218DC9748844202DC0AD1069851
:1049500040B19DED060BBDEC068B02B0BDE870408A
:1049600000F0EEBB002DCCBF9FED8F0B9FED900BA9
:10497000BDEC068B02B070BD8F48A04215DD8F489C
:10498000A042D8BF4FF0FF3458DD9DED060B51EC2F
:10499000100BFFF7FAFE042808BF00F0E5FB9DEDC1
:1049A000060BBDEC068B02B070BD9DED060B51EC05
:1049B000100B00F0C5FFCDE9060181489FED828B09
:1049C000A0423CDD8248A0421FDD00249FED82AB67
:1049D0009DED060B53EC1A2B51EC100B02F020FC52
:1049E0009DED060B41EC190B53EC1A2B51EC100BFF
:1049F00002F0B2FE53EC182B02F0EEFF53EC192B31
:104A000002F0C2FCCDE9060149E09DED060B012450
:104A100053EC182B51EC100B02F002FC9DED060B31
:104A200041EC190B53EC182B51EC100B02F0D4FF96
:104A300053EC192B02F0A8FCCDE906012FE06848E1
:104A4000A0421FDD02249FED689B9DED060B53ECF9
:104A5000192B51EC100B02F07FFE53EC182B02F0D7
:104A6000DFFB9DED060B41EC180B53EC192B51ECC1
:104A7000100B02F0B1FF53EC182B02F085FCCDE9CE
:104A800006010CE09DED060B032453EC102B9FED6B
:104A9000580B51EC100B02F077FCCDE906019DEDAF
:104AA000060B53EC102B51EC100B02F055FE41ECB1
:104AB000180B53EC182B02F04FFE41EC190B4E482B
:104AC0000621B0EE490AF0EE690A784400F0BCFA1B
:104AD00053EC182B51EC100B02F03EFE41EC180B7E
:104AE0004648B0EE490AF0EE690A0521784400F024
:104AF000ABFA53EC192B51EC100B02F02DFE41ECEC
:104B0000100B51EC180B53EC102B002C0EDA02F0AA
:104B100087FB9DED061B53EC112B02F01DFE9DED56
:104B2000061B53EC112B02F04BFF35E002F078FB33
:104B30009DED061B53EC112B02F00EFE41EC100B09
:104B40002F48784400EBC40090ED001B51EC100B93
:104B500053EC112B02F040FF9DED061B53EC112B83
:104B600002F03AFF41EC100B2648784400EBC400F9
:104B700090ED001B51EC100B53EC112B02F020FFB9
:104B800041EC100B002DA2BFBDEC068B02B070BD36
:104B900051EC100B02F006FB41EC100B01E700009A
:104BA000000010440000F07F182D4454FB21F93F11
:104BB000182D4454FB21F9BF0000DC3F0000203ECB
:104BC0000000F33F00000000000000000000F03F84
:104BD0000000E63F00000000000000000000004070
:104BE0000080034000000000000000000000F83FCB
:104BF000000000000000F0BFF2320000A832000008
:104C000032320000EA31000070B56B4E2DED040B1E
:104C10002DED028B82B0DDF81CC0DDE905235C427E
:104C20002CF000411C4341EAD474049D22F0004062
:104C3000B44205D86C422C4340EAD474B4420BD938
:104C40009DED061B9DED040B02B0BDEC028B04B084
:104C5000BDE8704000F07EBAACF14054A4F17F642E
:104C60001C430BD0022404EAAC7444EAD27405431A
:104C70009FED538B9FED542B07D015E09DED040B5A
:104C800051EC100B00F096FA42E0002C11BF012C01
:104C90009DED040B02B0BDEC028B04BF04B070BDEF
:104CA000022C38D0032C3BD00B439FED491B9FEDCA
:104CB0004A0B0AD0B14218D1B04209D121F080414B
:104CC00020F08040079105900FE0002A15DA10E0EF
:104CD000434B7B44002C08BF93ED000B0DD0012CFF
:104CE00010D0022C17D0032C1AD0B0421DD1002AAC
:104CF00003DAB0EE410AF0EE610A02B0BDEC028BBD
:104D000004B070BD93ED000B51EC100B02F04AFAA9
:104D100041EC100BF1E7B0EE480AF0EE680AECE760
:104D2000B0EE420AF0EE620AE7E7401A00153C28AE
:104D3000C8BF8DED000B19DCBCF1000FBEBF10F138
:104D40003C0F9FED290B8DED000B0FDB9DED060B4E
:104D500053EC102B9DED040B51EC100B02F014FBE7
:104D600000F0EEFD00F026FACDE90001002C08BFAE
:104D70009DED000BC1D0012C10D0022C9FED1C0B1F
:104D800053EC102B9DED000B51EC100B0DD002F0ED
:104D900023FE53EC182B02F01FFEB9E7019880F0B8
:104DA000004001909DED000BA7E702F015FE53ECCB
:104DB000182B02F005FEABE70000F07F00000000BA
:104DC000182D4454FB210940182D4454FB2109C0DF
:104DD000182D4454FB21F9BF182D4454FB21F93FF1
:104DE0001A31000000000000000000000000000078
:104DF000075C143326A6A13C10EE100A10B510EE85
:104E0000901A4FF0684202EB40032DED028BB3F194
:104E1000654F3CBF02EB4102B2F1654F7CD200BF4F
:104E2000C0F3C753C1F3C7529A1A1B2A09DD10F009
:104E3000004F14BF9FED6E0A9FED6E0ABDEC028B12
:104E400010BD12F11A0F1BDA11F0004F09D010F04B
:104E5000004F0CBF9FED680A9FED680ABDEC028B06
:104E600010BD80EE208A18EE100AFFF7A6FC042879
:104E700008BF00F097F9B0EE480ABDEC028B10BDF8
:104E80004200B2EB410F37D910F0004F19BFDFEDF0
:104E90005C1A9FED5C1ADFED5C1A9FED5C1AB0EEB8
:104EA000602A0A46F1EE400A80F00041B0EE420A64
:104EB00010460A1A5200B2F1807F34D2484010F0F6
:104EC000004FDFED532A9FED533A1DBFBEEE002A7F
:104ED00071EEE21A31EE431AB6EE002A04BF71EE0B
:104EE000A21A31EE031AF0EE402A42EE602A40EE9A
:104EF000020A82EEA02A18E011F0004F04BF9FEDD5
:104F0000461AF0EE411AD4D010F0004F1CBFDFED6E
:104F1000431A9FED431A00E026E004BFDFED411A7B
:104F20009FED411AC5E780EE202A22EE020ADFED4E
:104F30003F0ADFED3F2ABDEC028B40EE202ADFED79
:104F40003D0A40EE220ADFED3C2A40EE202ADFED4A
:104F50003B0A40EE220A22EE000A00EE201A31EE51
:104F6000020A30EE210A10BD4FF07F42B2EB400F33
:104F700028BFB2EB410F05D2BDEC028BBDE810405B
:104F800000F005B940EA01035B0008BF41F0FF41B2
:104F90000BD0B2EB400F08BFB2EB410F08D120F0AD
:104FA000804000EE100A21F0804100EE901A37E7B1
:104FB000B2EB400F12BF5FEA410240F0FF4001F048
:104FC00000413FF42DAF4A0092EA40033FF528AF7D
:104FD000002AACBF9FED1A1A9FED1A1A20EE010AA3
:104FE00060EE810A10EE100A10EE901A18E7000029
:104FF000DB0FC9BFDB0FC93FDB0F4940DB0F49C0E7
:105000000000C9BF22AAFDB90000C93F22AAFD398C
:105010000060ED3EC30ACE3700000000000049C02A
:1050200022AA7DBA0000494022AA7D3A2DAD65BD75
:105030008FB8D53D0FB511BE61C84C3EA8AAAABE17
:105040000000804F0000802F70B504462DED028BCC
:105050004D1E00EBC500B0EE408AF0EE608A90ED88
:10506000000B35F0060017D053EC182B51EC100B49
:1050700002F072FB41EC100B6D1E04EBC50090EDCD
:10508000001B51EC100B53EC112B02F0C9F841EC52
:10509000100B35F00600E7D1022D36D0042D1CD0C0
:1050A000062D1CBFBDEC028B70BD53EC182B51ECD0
:1050B000100B02F051FB94ED0A1B53EC112B02F084
:1050C000AFF853EC182B02F047FB94ED081B53ECA0
:1050D000112B02F0A5F841EC100B53EC182B51ECFE
:1050E000100B02F039FB94ED061B53EC112B02F070
:1050F00097F853EC182B02F02FFB94ED040B53ECB4
:10510000102B02F08DF841EC100B53EC182B51ECE6
:10511000100B02F021FB94ED021B53EC112B02F05B
:105120007FF853EC182B02F017FB94ED001B53ECA7
:10513000112B02F075F8BDEC028B41EC100B70BD29
:1051400010B553EC102B51EC100B02F069F841EC48
:10515000100B10BD10B553EC112B51EC100B02F0DD
:105160005FF841EC100B10BD9FED050B10B553EC33
:10517000102B51EC100B02F0EFFA41EC100B10BDAC
:10518000000000000000001030EE000A704730EE12
:10519000200A7047DFED020A80EEA00A7047000087
:1051A000000000009FED020A20EE000A7047000098
:1051B0000000001010B541EC100BFFF7B9FB51ECEB
:1051C000100B10BDF8B500208DF800000446FBF769
:1051D0001FFA8020FBF78EFB5520FBF78BFB552039
:1051E000FBF788FB8DF80000FBF70AFA9620FBF727
:1051F0006CFAFBF70DFA8020FBF77CFB5520FBF7E0
:1052000079FB5520FBF776FB8DF80000FBF7F8F9EA
:105210009620FBF75AFAFBF7FBF9B6217E20FBF745
:1052200090FBFBF7EDF95020FBF74DFAFBF7F0F997
:105230008020FBF75FFB5520FBF75CFB5520FBF75D
:1052400059FB8DF80000FBF7DBF99620FBF73DFAE0
:10525000FBF7DEF98020FBF74DFB5520FBF74AFBFF
:105260005520FBF747FB8DF80000FBF7C9F99620A6
:10527000FBF72BFA9DF800001E2801D0FF20F8BD97
:10528000194D00BFFBF7C4F904EB44067719A85D7C
:105290007978FBF756FBFBF7B3F99620FBF715FA85
:1052A000FBF7B6F9A85D40F08000FBF723FB552023
:1052B000FBF720FB5520FBF71DFB8DF80000FBF7EB
:1052C0009FF99620FBF701FA78789DF80010884244
:1052D00004D004EB440028448078F8BD641CE4B298
:1052E000062CCFD30020F8BD1C0100202DE9F04191
:1052F00086B00020019002908DF800000546FBF773
:1053000087F98020FBF7F6FA5520FBF7F3FA5520D2
:10531000FBF7F0FA8DF80000FBF772F99620FBF727
:10532000D4F9FBF775F98020FBF7E4FA5520FBF779
:10533000E1FA5520FBF7DEFA8DF80000FBF760F983
:105340009620FBF7C2F9FBF763F9B6217E20FBF745
:10535000F8FAFBF755F95020FBF7B5F9FBF758F9C8
:105360008020FBF7C7FA5520FBF7C4FA5520FBF75E
:10537000C1FA8DF80000FBF743F99620FBF7A5F979
:10538000FBF746F98020FBF7B5FA5520FBF7B2FA98
:105390005520FBF7AFFA8DF80000FBF731F99620A6
:1053A000FBF793F99DF800001E2803D0FF2006B0FC
:1053B000BDE8F081804CDFF8048200BFFBF728F9DC
:1053C00005EB45063719A05D7978FBF7BAFAFBF7CC
:1053D00017F99620FBF779F988F80050FBF718F9D0
:1053E000A05D40F08000FBF785FA5520FBF782FABC
:1053F0005520FBF77FFA8DF80000FBF701F99620A6
:10540000FBF763F978789DF80010884204D005EB2B
:10541000450020448078CAE75020FBF754F96D1C02
:10542000EDB2042DCAD30025FBF7F2F805EB4507D2
:105430003E19717B307BFBF784FAFBF7E1F896208D
:10544000FBF743F9FBF7E4F8307B40F08000FBF713
:1054500051FA5520FBF74EFA5520FBF74BFA8DF821
:105460000000FBF7CDF89620FBF72FF988F80050E5
:10547000707B9DF80010884204D005EB4500204465
:10548000807B94E75020FBF71EF9FBF7C1F89220D0
:10549000FBF730FA062201A91220FBF70DFAFBF701
:1054A000AFF89DF805006D1C01029DF80400EDB2F7
:1054B000014303A8022D20F817109DF807109DF84E
:1054C000062000EB470042EA012141809DF80910C7
:1054D0009DF8082042EA01218180A5D3FBF798F8C6
:1054E00000216D20FBF72DFAFBF78AF89620FBF7D9
:1054F000ECF8FBF78DF8ED20FBF7FCF95520FBF7F6
:10550000F9F95520FBF7F6F98DF80000FBF778F86C
:105510009620FBF7DAF89DF8000008B1042046E772
:10552000FBF776F8B6217E20FBF70BFAFBF768F85D
:105530005020FBF7C8F8BDF90C00BDF91210411A54
:1055400040F2555081420EDBBDF90E10BDF914201A
:10555000891A814207DBBDF91000BDF91610401A07
:10556000B0F52A7F01DA802021E7FBF751F880208F
:10557000FBF7C0F95520FBF7BDF95520FBF7BAF949
:105580008DF80000FBF73CF89620FBF79EF8FBF740
:105590003FF88020FBF7AEF95520FBF7ABF955201B
:1055A000FBF7A8F98DF80000FBF72AF89620FBF727
:1055B0008CF80020FBE60000347D0008100100207C
:1055C000F8B500248DF80040FBF734F86946002058
:1055D000FBF784F9FBF726F89620FBF776F8FBF744
:1055E00029F869460020FBF779F9FBF71BF89620AC
:1055F000FBF76BF8FBF71EF8B6211420FBF7A1F9B7
:10560000FBF710F85020FBF75EF8FBF713F869463C
:105610000020FBF763F9FBF705F89620FBF755F838
:10562000FBF708F869460020FBF758F9FAF7FAFF8C
:105630009620FBF74AF89DF800000F2801D0FF20C4
:10564000F8BD154DFAF7F6FF04EB44067719A85D8F
:105650007978FBF776F9FAF7E5FF9620FBF735F84E
:10566000FAF7E8FFA85D6946FBF738F9FAF7DAFFC1
:105670009620FBF72AF878789DF80010884204D02D
:1056800004EB440028448078F8BD641CE4B2062C86
:10569000D8D30020F8BD00002E01002038B500202E
:1056A0008DF800000446FAF7C5FF69460020FBF7B5
:1056B00015F9FAF7B7FF9620FBF707F8FAF7BAFFE4
:1056C00069460020FBF70AF9FAF7ACFF9620FAF7D3
:1056D000FCFFFAF7AFFFB6211420FBF732F9FAF717
:1056E000A1FF5020FAF7EFFFFAF7A4FF6946002068
:1056F000FBF7F4F8FAF796FF9620FAF7E6FFFAF7C9
:1057000099FF69460020FBF7E9F8FAF78BFF96202E
:10571000FAF7DBFFFAF78EFF01213C20FBF711F9C6
:10572000FAF780FF5020FAF7CEFF00BFFAF782FFAA
:1057300069463C20FBF7D2F8FAF774FF9620FAF797
:10574000C4FF641C9DF80000E4B2800701D40A2C59
:10575000ECD30A2C03D09DF80000400701D540206F
:1057600038BD002038BD000000B587B0024600916A
:105770000021029103910821049101236946024806
:10578000FBF78AFB07B000BD580400202DE9F84361
:105790001A4D194F0024A5F5887800BF37F9140079
:1057A00004EB041100EE100A04EB440005EB800644
:1057B000F8EEC00AB6F9060000EE100A08EB810008
:1057C000B8EEC00A00F00CFDBDEEC00A641CE4B2E5
:1057D00010EE100A042C7080E0D3B5F9260000907A
:1057E000B5F91A30B5F90E20B5F90210002000F015
:1057F000FDFFBDE8F8830000E00000201C4A002007
:1058000030B50C480021018041808180C1800A4967
:105810008A7A032A0DD10B884A8889889C1A0C44FD
:1058200004809C1865184580D21A0A448280091B9E
:10583000C18030BDE0000020F44800200648016827
:105840000648B1FBF0F2064802704FF47A72B1FBE1
:10585000F2F14160704700002000002040420F003C
:105860004001002070B54FF0E0240022656909492D
:10587000A36909784843A1699942FCD002D2A3EBFD
:10588000010302E0A5EB010633441A440B468242B1
:10589000F1D370BD4001002090ED000A094A10EEDE
:1058A000101ADFED090A914202DD30EE600A06E0CF
:1058B00010EE101A054A914203D930EE200A80ED0D
:1058C000000A7047000034430000B443000034C3B2
:1058D0000A49896B814207D10068016841F40021BF
:1058E00001600748FEF78CBE0649896B814204D1EE
:1058F0000068016841F40021016070476C070020D6
:10590000C4480020B00700200A49896B814207D1B2
:105910000068016821F4002101600748FEF770BEAD
:105920000649896B814204D10068016821F4002195
:10593000016070476C070020DC480020B0070020A1
:1059400082B0CDE9000121F0004001909DED000BF7
:1059500002B051EC100B70472DE9F0411D462DEDC2
:10596000048BB7EE008AF0EE008A90ED001A90EDFD
:10597000010AF0EE480A61EE011A16460F46044687
:1059800040EE001A51EEA80AD0ED031A21EE211ABA
:10599000D0ED021A00EE211A21EE280AFFF72CFAA8
:1059A00010EE100A02F002F99FED269B53EC192B22
:1059B00001F0D2FE01F002FC386094ED010AD4ED52
:1059C000030A94ED021A20EE200AD4ED000A00EE3C
:1059D000C10AF8EE000A20EE200AFEF711FF10EED1
:1059E000100A02F0E3F853EC192B01F0B5FE01F0B8
:1059F000E5FB306094ED001A94ED030AF0EE480ADE
:105A000061EE011A40EE001A51EEA80AD4ED011A17
:105A100021EE211AD4ED021A01EE801A21EE280A95
:105A2000FFF7EAF910EE100A02F0C0F853EC192B58
:105A300001F092FE01F0C2FB2860BDEC048BBDE8D2
:105A4000F08100006666666666A64C40054810B5A3
:105A5000B0F9020001F02CFE41EC100B024880ED81
:105A6000000B10BDF44800200001002010B52DED02
:105A7000048B9FED419BB0EE498AF0EE698AFFF7F7
:105A8000E5FF53EC192B51EC100B01F063FF4DD3E4
:105A9000FFF7DCFF53EC192B51EC100B01F0CCFDA0
:105AA0000BD100F07DF853EC192B51EC100B01F0E9
:105AB00051FF02D29FED328B4AE0FFF7C7FF53EC54
:105AC000192B51EC100B01F0B7FD0BD100F068F869
:105AD00053EC192B51EC100B01F002FE02D29FED9A
