:020000040800F2
:1000000000520020290300087B3A0008E132000872
:10001000793A00085509000805470008000000006B
:10002000000000000000000000000000690200085D
:10003000D90D000800000000C5020008DD3E0008E0
:100040004303000843030008430300084303000878
:100050004303000843030008DB0D000843030008C6
:100060004303000843030008E10D000843030008B0
:10007000010A0008430300080D0A000843030008B2
:10008000430300084303000843030008A1090008D4
:10009000950900084303000843030008E70D000822
:1000A000993F0008B53F00084303000843030008D8
:1000B0004303000843030008430300084303000808
:1000C00043030008430300084303000843030008F8
:1000D00043030008E54400084303000829450008DD
:1000E000430300084303000843030008D13F00080E
:1000F000DD3F0008430300084303000843030008F2
:1001000043030008430300084303000843030008B7
:1001100043030008430300084303000843030008A7
:10012000190A0008250A0008310A0008D50A000843
:10013000430300084303000843030008F5090008CF
:10014000E9090008430300084303000843030008CB
:10015000E10A0008ED0A0008F90A0008BD46000897
:100160004303000843030008430300084303000857
:100170004303000843030008430300080000000095
:10018000430300084303000800F002F800F05CF8A5
:100190000AA090E8000C82448344AAF10107DA45E2
:1001A00001D100F051F8AFF2090EBAE80F0013F0D8
:1001B000010F18BFFB1A43F001031847706A0000D3
:1001C000906A00000A444FF0000C10F8013B13F055
:1001D000070408BF10F8014B1D1108BF10F8015BA0
:1001E000641E05D010F8016B641E01F8016BF9D193
:1001F00013F0080F1EBF10F8014BAD1C0C1B09D1EA
:100200006D1E58BF01F801CBFAD505E014F8016B5B
:1002100001F8016B6D1EF9D59142D6D370470000ED
:100220000023002400250026103A28BF78C1FBD8FF
:10023000520728BF30C148BF0B6070471FB506F09A
:100240007AFC1FBD10B510BD00F094F91146FFF700
:10025000F5FF05F09DFA00F0B2F903B4FFF7F2FFE5
:1002600003BC00F0B5F900002C4B19680868B0E831
:10027000F04F80F30988BFF36F8F4FF0000080F3D9
:10028000118870470000000008480068006880F38B
:1002900008884FF0000080F3148862B661B6BFF39F
:1002A0004F8FBFF36F8F00DF00BF00BF08ED00E08E
:1002B000DFF80C00016841F470010160704700BF75
:1002C00088ED00E0EFF30980BFF36F8F134B1A68DE
:1002D0001EF0100F08BF20ED108A20E9F04F1060CB
:1002E00009B44FF0500080F31188BFF34F8FBFF374
:1002F0006F8F06F051F84FF0000080F3118809BCB1
:1003000019680868B0E8F04F1EF0100F08BFB0EC95
:10031000108A80F30988BFF36F8F70472400002094
:10032000EFF30580704700000948804709480047FF
:10033000FEE7FEE7FEE7FEE7FEE7FEE7FEE7FEE795
:10034000FEE7FEE704480549054A064B70470000F2
:10035000893F000889010008004C0020005200205D
:10036000004E0020004E002053EA020C00F069808D
:100370002DE9F04B4FF00006002B1FBFB3FA83F5B9
:1003800003FA05F424FA05F65E4012BF1643B2FAEA
:1003900082F502FA05F4C5F120051EBF22FA05FC1C
:1003A00044EA0C04203556EA044C4FEA144418BFC2
:1003B000641C4FF000084FF00009904271EB030CF1
:1003C00039D3002919BFB1FA81F701FA07F6B0FA5B
:1003D00080F700FA07F6C7F120071EBF20FA07FCD6
:1003E00046EA0C062037B6FBF4FCA7EB0507103FE6
:1003F00007F01F0BCBF120060CFA0BFB2CFA06F6CC
:1004000044BFB3460026202FA4BF5E464FF0000B2A
:100410005BEA060C08BF4FF0010B19EB0B09ABFBB5
:10042000027C48EB0608C01B06FB02CC0BFB03CC8E
:1004300071EB0C01C1E70B46024641464846BDE858
:10044000F08B13B54FF000004FF00001AFF30080C8
:10045000BDE81C40704710B5431C02E010F8011BBA
:1004600071B18107FAD14FF0013202C88C1A8C4366
:1004700014EAC211F9D0C01A0A0603D0C01E10BD7A
:10048000C01A10BD0A0401D0801E10BD0902FCD0A4
:10049000401E10BD10B5203AC0F00B80B1E81850D6
:1004A000203AA0E81850B1E81850A0E81850BFF45E
:1004B000F5AF5FEA027C24BFB1E81850A0E81850FD
:1004C00044BF18C918C0BDE810405FEA827C24BF51
:1004D00051F8043B40F8043B08BF7047D20728BFDF
:1004E00031F8023B48BF11F8012B28BF20F8023B2E
:1004F00048BF00F8012B70474FF0000200B51346CB
:1005000094469646203922BFA0E80C50A0E80C5033
:10051000B1F12001BFF4F7AF090728BFA0E80C50E4
:1005200048BF0CC05DF804EB890028BF40F8042BDD
:1005300008BF704748BF20F8022B11F0804F18BF4A
:1005400000F8012B704770477047704710B500F0F6
:1005500009F8006810BD10B5044600F003F8046007
:1005600010BD0000004870479C4B002000487047B9
:100570009C4B00207546FFF7F9FFAE460500694623
:10058000534620F00700854618B020B5FFF7DAFE85
:10059000BDE820404FF000064FF000074FF0000884
:1005A0004FF0000B21F00701AC46ACE8C009ACE805
:1005B000C009ACE8C009ACE8C0098D46704710B569
:1005C0000446AFF300802046BDE81040FFF745BE6B
:1005D00001491820ABBEFEE726000200704700006C
:1005E000B7EE000A80ED000A9FED040A80ED010AD3
:1005F00080ED020A80ED030A704700000000000051
:1006000001221021014801F021BB0000000002403E
:1006100000221021014801F019BB00000000024037
:100620007047000001221146014801F00FBB000095
:100630000004024000220121014801F007BB000034
:100640000004024030B5437804781B021BB22343F8
:1006500000EE103A194CB8EEC00AD4ED010A20EEB3
:10066000200A81ED000AC37885781B021BB22B4358
:1006700000EE103AD4ED010AB8EEC00A20EE200ACE
:1006800081ED010A437904791B021BB2234300EE7A
:10069000103AB8EEC00A20EE200ADFED090A81ED1B
:1006A000020AD0F8060020F07F4000EE100AB8EEF3
:1006B000400A20EE200A82ED000A30BD0001002031
:1006C00000401C42704705F09BB804F063BD000079
:1006D00010B542780378120212B21A4300EE102AC3
:1006E000124BB8EEC00AD3ED020A20EE200A81EDCB
:1006F000000AC2788478120212B2224300EE102A55
:10070000D3ED020AB8EEC00A20EE200A81ED010AFC
:1007100042790079120212B2024300EE102AB8EEBA
:10072000C00A20EE200A81ED020A10BD000100205F
:1007300010B5FFF775FFFFF7C5FF04F06FFA08B1BA
:10074000802402E004F0D6F9044604F03FFC10B126
:1007500044F0400010BD04F0CBFB204310BD00006E
:100760002DE9FC410746002016460D4600900190F9
:10077000FFF74EFF922000F0BDF8062269461220D6
:1007800000F09AF8FFF73CFF9DF801009DF800107B
:10079000000200B2084300EE100A464CB8EEC00A50
:1007A000D4ED010A20EE200A85ED000A9DF8030031
:1007B0009DF80210000200B2084300EE100AD4EDCA
:1007C000010AB8EEC00A20EE200A85ED010A9DF864
:1007D00005009DF80410000200B2084300EE100A64
:1007E000B8EEC00A20EE200A85ED020AFFF722FFCC
:1007F00008226946002000F05FF8FFF713FF9DF81C
:1008000000000F2830D19DF803009DF8021000026F
:1008100000B2084300EE100AD4ED020AB8EEC00A96
:1008200020EE200A87ED000A9DF805009DF80410CF
:10083000000200B2084300EE100AD4ED020AB8EE3E
:10084000C00A20EE200A87ED010A9DF807009DF8F6
:100850000610000200B2084300EE100AB8EEC00A0B
:1008600020EE200A87ED020AFFF7D2FEA22000F058
:1008700041F802226946222000F01EF8FFF7C0FE70
:100880009DF800009DF80110C00040EA5110B0F53D
:10089000806F01DBA0F5006000EE100AB4EE001AD4
:1008A000F8EEC00AB3EE070A00EE810A86ED000AF0
:1008B000BDE8FC810001002070B514460D4640F0F3
:1008C000800000F017F806E0552000F013F8641ED1
:1008D00005F8010BE4B2002CF6D170BD10B50C4642
:1008E00040F0800000F006F8552000F003F820707A
:1008F00010BD000001B582B04FF47A700090012362
:1009000001AA02A9024801F0C9FD9DF804000EBD2C
:100910007804002002784078D20042EA5010B0F506
:10092000806F01DBA0F5006000EE100AB4EE001A43
:10093000F8EEC00AB3EE070A00EE810A81ED000A64
:10094000704710B50C46FFF7D5FF2046BDE81040B4
:10095000FFF7D0BFFEE7000000B58BB000200121FB
:10096000CDE906010590009001900290039004905B
:100970000E20CDE908106946054800F0AFFA0221C3
:10098000034800F035FA024800F05EFE0BB000BDEF
:1009900028040020014800F09CBB0000280400202F
:1009A000014800F096BB00002804002000B58BB081
:1009B00001220E2100200792CDE90510039004903A
:1009C000CDE908210090019002906946054800F0A9
:1009D00085FA0221034800F00BFA024800F034FEC9
:1009E0000BB000BD50040020014800F072BB0000B5
:1009F00050040020014800F06CBB000050040020AF
:100A0000014800F0AFBE000084080020014800F05B
:100A1000A9BE0000E4080020014800F0A3BE0000C9
:100A2000D0040020014800F09DBE000044090020D1
:100A300070B523480068800240D521494FF0F4602A
:100A4000083108601F4C207880070CD5207820F0F2
:100A500002002070207840F004002070012211462E
:100A6000194801F0F3F86078184D80070CD56078CC
:100A700020F002006070607840F004006070012295
:100A80001021284601F0E2F8A07880070CD5A07864
:100A900020F00200A070A07840F00400A0700122B5
:100AA0001021284601F0D2F804F096FC2078400787
:100AB00004D50748016841F00101016070BD0000E4
:100AC000006402403801002000040240000002409F
:100AD000103C0140014800F045BE000030050020F8
:100AE000014800F03FBE0000C4070020014800F0AC
:100AF00039BE0000A4090020014800F033BE000008
:100B0000240800202DE9F04F85680024099E802DDF
:100B100018D0894DC563894D456490F83450012D36
:100B200015D0012580F8345090F83550012D10D0A3
:100B3000002180F834100224002180F8341020466F
:100B4000BDE8F08F4FF4807141650120F8E7022085
:100B5000F6E7022580F835500025456505682F68C1
:100B600047F480272F6005682B6103685E60836807
:100B7000402B03682AD099600168CA60714D704E9D
:100B8000704FDFF8BC81DFF8B891DFF8B8A1DFF86B
:100B9000B4B1EA14DFF8A8E10168183630379302DF
:100BA000A9F148090AF1600A0BF1180BAEF1300EF9
:100BB0004FF0006C41452DD9A94205D0494503D0DD
:100BC000514501D0B14205D1202220E09A6002684F
:100BD000D160D3E759451AD0714518D0594D7835B1
:100BE000A94214D0564D3035A94210D0B9420BD08D
:100BF000534A183A914207D0524A9032914203D058
:100C00004F4A4832914201D11A4600E062464C49AF
:100C10004C392EE0DFF82C8108F1A80841452AD98B
:100C2000A94205D0494503D0514501D0B14201D177
:100C300020221CE059451AD0714518D0414D783515
:100C4000A94214D03E4D3035A94210D0B9420BD044
:100C50003B4A183A914207D03A4A9032914203D027
:100C6000374A4832914201D11A4600E0624634497F
:100C700050390A605AE0DFF8CC8008F14808414555
:100C80002AD9A94205D0494503D0514501D0B142E6
:100C900001D120221CE059451AD0714518D0294DA8
:100CA0007835A94214D0264D3035A94210D0B9422A
:100CB0000BD0234A183A914207D0224A90329142EF
:100CC00003D01F4A4832914201D11A4600E06246E1
:100CD0001C491039CA6029E0A94205D0494503D012
:100CE000514501D0B14201D120221CE059451AD012
:100CF000714518D0134D7835A94214D0104D3035B8
:100D0000A94210D0B9420BD00D4A183A914207D0EF
:100D10000C4A9032914203D0094A4832914201D1A3
:100D20001A4600E06246074910398A6001680A687D
:100D300042F001020A60FFE6C951000801520008B2
:100D4000586402401060024001681823CAB2103A89
:100D5000B2FBF3F2054B6FF30901032A9B5CC365F9
:100D600000D9091D8165084670470000BC6B00086A
:100D700010B5014600208B698A6A4FF0C07453B1E8
:100D8000B3F5005F15D072B1012A0CD0022A0AD047
:100D9000032A09D104E01AB1012A06D0022A03D19C
:100DA000C96AC90100D5012010BDC96AA142FAD0A3
:100DB00010BD002AF7D0012AF2D0022AF3D0032A6C
:100DC000F3D010BD01680A68D20604D5C968C90607
:100DD00001D505F0AFB870477047012000F032BE72
:100DE000102000F02FBE202000F02CBE72B6FEE7CF
:100DF00090F82020012A07D0022A05D0416A41F448
:100E00008021416201207047006842690A434261C3
:100E100000207047F0B590F820500468A468012DB8
:100E200005D0022D03D0416A41F4802153E014F033
:100E3000406F01D1E5004BD5C4F30164022C03D906
:100E4000416A41F4000146E00125A5401D608D681E
:100E50004FF4C0739DB1CE6835434E6845EAC60570
:100E6000066803EB0417F5514FF4C275076805EBEC
:100E700004150E697E51097D012905D009E00E880F
:100E8000CD6845EA4655EBE701684E5946F4807651
:100E90004E511179D2F805504FF4C67641EA052536
:100EA000016806EB04168D511178D2F801204FF439
:100EB000C47541EA0221026805EB0415515100682E
:100EC00003EB0411425842F0010242500020F0BDF1
:100ED000416A41F4001141620120F0BD10B590F863
:100EE0002020012A07D0022A05D0416A41F480213E
:100EF0004162012010BD3B48D0F8002242F00102BF
:100F0000C0F80022D0F8002222F47C52C0F800225F
:100F1000D0F800224B6A42EA0322C0F800220A7D80
:100F200002F01F0301229A40D0F81C329343C0F80C
:100F30001C32CB69B3B9D0F80C329343C0F80C32F1
:100F40008C894B6864F31F434C6900EBC404C4F8FC
:100F500040320C890B6864F31F434C6900EBC404F6
:100F6000C4F84432CB69012B16D1D0F80C321343AC
:100F7000C0F80C320C884B6864F31F434C6900EBDB
:100F8000C404C4F840320C89CB6864F31F434C6935
:100F900000EBC404C4F844328B69002BD0F804324F
:100FA0000ED01343C0F804320B69002BD0F8143272
:100FB00008D01343C0F81432096A012904D008E0AC
:100FC0009343EFE79343F5E7D0F81C121143C0F8C1
:100FD0001C12D0F8001221F00101C0F8001200200C
:100FE00010BD000000640040704730B590F820400C
:100FF000012C05D0022C03D0416A41F480215DE030
:101000000468002955D02469A40754D04FF4D8743B
:10101000056804EB01142D5915F004059560056869
:101020002D594ED0ED08556005682C5904F0020486
:10103000D4604FF4DA74056804EB01142D5905F0FF
:101040000F05156105682D59C5F3072595610568DC
:101050002C59240C54614FF4DC72046802EB011229
:10106000A4581C700468A458240A5C700468A4582E
:10107000240C9C700468A258120EDA704FF4DE72D1
:10108000046802EB0112A4581C710468A458240AD5
:101090005C710468A458240C9C710468A258120E58
:1010A000DA71006881B1016941F02001016100201D
:1010B00030BDE468A8E7416A41F4001141620120B3
:1010C00030BD6D0D1560AFE7C16841F02001C16012
:1010D000EDE72DE9F05F0546006800244669D0F889
:1010E00004908768D0F80CB0D0F810A0D0F8188021
:1010F000F10748D0F90714D001218160B80703D562
:10110000284600F0CEFA0CE0780702D54FF40064D0
:1011100007E0380702D54FF4805402E0284600F07B
:10112000BFFAF80516D529684FF480708860B805B5
:1011300003D5284600F0B7FA0CE0780502D544F450
:10114000005407E0380502D544F4804402E0284604
:1011500000F0A8FAF80316D529684FF480308860AB
:10116000B80303D5284600F0A0FA0CE0780302D5B6
:1011700044F4004407E0380302D544F4803402E02C
:10118000284600F091FA300707D55FEACB6004D516
:101190002968102044F40074C86070074FF00807F5
:1011A00007D55FEA0B7004D52868C760284600F0B1
:1011B000A9F9B00706D52868C068800702D028467C
:1011C00000F0A2F9700607D55FEACA6004D5296865
:1011D000102044F480640861B00607D55FEA0A7005
:1011E00004D528680761284600F02AFAF00606D5DB
:1011F00028680069800702D0284600F022FAB00370
:1012000008D55FEAC96005D52968102048602846DE
:1012100000F018FAF00307D55FEA097004D52868D2
:101220004760284600F042FA300446D55FEA49702C
:1012300040D5F00504D55FEAC87001D044F0010440
:10124000B00504D55FEA887001D544F0020470054A
:1012500004D55FEA487001D544F00404300529D56F
:1012600018F0700F26D008F07000402815D006DC6A
:10127000102809D020280AD0302816D10AE050289A
:101280000ED0602811D10EE044F008040DE044F0C7
:1012900010040AE044F0200407E044F0400404E0B5
:1012A00044F0800401E044F480742868816921F0EE
:1012B00070018161296804204860002C05D0686AAB
:1012C000204368622846FFF78FFEBDE8F09F70B5A7
:1012D000040003D094F8200010B104E0012070BD98
:1012E000204600F081F82068016841F001010160AA
:1012F00000F0B2FC0546052604E000F0ADFC401B02
:101300000A2811D820684068C007F6D02068016814
:1013100021F00201016000F09FFC05460BE000F0A7
:101320009BFC401B0A2806D9606A40F400306062CA
:1013300084F82060D2E7206840688007EFD4207EE0
:101340000128206801683DD021F080010160607EA5
:1013500001282068016838D021F040010160A07E9A
:1013600001282068016833D021F020010160E07E6F
:101370000128206801682ED041F010010160207F13
:1013800001282068016829D021F008010160607FF0
:1013900001282068016824D021F004010160D4E90B
:1013A00002010843D4E90412114308436168491E4D
:1013B00008432168C86100206062012084F8200091
:1013C000002070BD41F08001C0E741F04001C5E759
:1013D00041F02001CAE721F01001CFE741F00801F8
:1013E000D4E741F00401D9E7F0B587B004461421F1
:1013F0006846FFF781F83E4B3E48DFF8F0E0196899
:10140000D4F800C03B4A03250226092710300024E7
:10141000491CF4452AD11960012907D1016841F01E
:1014200000710160006800F000700590106840F0E5
:10143000080010601068CDE9005600F00800CDE902
:10144000047069462C48CDE9024500F007FB0022F4
:101450000521132000F072FC132000F061FC002233
:101460000521142000F06AFC14203AE0DFF88CE03B
:10147000F44538D1D0F800C04CF0806CC0F800C002
:10148000D0F800C001290CF0806CCDF814C01960B0
:1014900007D1016841F000710160006800F0007040
:1014A0000590106840F002001060106802AB00F078
:1014B000020005906020CDE9000683E8B00069468F
:1014C0000F4800F0CBFA002205213F2000F036FC47
:1014D0003F2000F025FC00220521402000F02EFCDA
:1014E000402000F01DFC07B0F0BD0000006400408B
:1014F0001000002030380240000C0240006800401C
:10150000000402407047000070B505460068454E73
:101510008CB0B04205D16B4602AA00212846FFF7E5
:1015200064FD2868404CB04222D16B4602AA0021DB
:101530002846FFF75AFD0298A0F20520032815D28D
:1015400010F0FF0FBDF8000042BA38488280BDF8A5
:10155000022052BAC280BDF8042052BA02819DF81E
:101560000620827202D12088401C20800CB070BD01
:101570002F498842FAD109AB02AA00212846FFF779
:1015800034FD0298A0F20120072819D210F0FF01C3
:10159000BDF8240001EB410342BA264800EB83006A
:1015A0008280BDF8262052BAC280BDF8282052BAE7
:1015B00002819DF82A20827202D12088401C20805E
:1015C0000298A0F500711139D0D1BDF8240000EEC9
:1015D000100A1A48F8EE400A9FED170A80EE801AAA
:1015E00080ED001ABDF8261000EE901AF8EE600AA1
:1015F00080EE801A80ED011ABDF8281000EE901AD6
:10160000F8EE600A80EE801A80ED021ABDF82A100A
:1016100000EE901AF8EE600A80EE801A80ED031A50
:10162000A4E70000006400408C000020044B002070
:1016300000680040EC4900200000C842F446002049
:10164000704770477047000070B5044690F820005E
:10165000012804D0606A40F40020606218E0022093
:1016600084F820002068016821F00101016000F089
:10167000F3FA05460EE000BF00F0EEFA401B0A2820
:1016800008D9606A40F400306062052084F82000C8
:10169000012070BD20684068C007EDD1606270BD58
:1016A00070477047704770477047704770472DE923
:1016B000F0410446876D00F0CFFA064694F83500F5
:1016C0000025022806D08020606584F8345001206F
:1016D000BDE8F0812068016821F0160101602068F2
:1016E000416921F080014161206C08B9A06C20B1F2
:1016F0002068016821F0080101602068016821F07C
:10170000010101600CE000F0A7FA801B052807D951
:1017100020206065032084F8350084F83450D7E732
:1017200020680068C007EED194F85C103F20884024
:10173000B860012084F8350084F834500020C7E7F1
:1017400090F83510022903D08021416501207047AF
:10175000052180F835100068016821F00101016061
:10176000002070472DE9F84304464FF00009CDF8FA
:10177000009063484FF41651A56D0068B0FBF1F777
:101780002E6894F85C10082000FA01F131420FD065
:1017900021680A6852070BD50A6822F004020A6021
:1017A00094F85C108840A860606D40F001006065AE
:1017B00094F85C104FF0010808FA01F0304208D0AC
:1017C00021684969090604D5A860606D40F00200EF
:1017D000606594F85C1004208840304208D021688D
:1017E0000968890704D5A860606D40F00400606551
:1017F00094F85C1010208840304218D021680968A5
:10180000090714D5A86020680168490304D5006859
:10181000000308D5A16C07E00168C90503D401687D
:1018200021F008010160216C09B12046884794F835
:101830005C1020208840304231D021680968C906F8
:101840002DD5A86094F8350005282068016806D0D9
:10185000490347D5006800031DD4616C1CE021F0EA
:10186000160101602068416921F080014161206C0E
:1018700008B9A06C20B12068016821F0080101605E
:1018800094F85C103F208840A86084F8358084F884
:101890003490216D1FE0E16B09B120468847606DEF
:1018A00000282BD0606DC00714D0052084F83500C7
:1018B0002068016821F0010101600098401C00903F
:1018C000B84203D820680068C007F6D184F8358094
:1018D00084F83490E16C002910D001B02046BDE8B6
:1018E000F04308470168C905D5D4016821F010010B
:1018F000016084F8358084F83490CCE7BDE8F88343
:10190000200000202DE9F041044600F0A5F906462C
:101910005CB1022084F83500002584F8345020683A
:10192000016821F0010101600DE00120BDE8F081B6
:1019300000F092F9801B052805D92020606503205E
:1019400084F83500F2E720680068C007F0D122680B
:10195000116820480140D4E901031843D4E9033653
:101960003343184363691843A3691843E369184371
:10197000236A18430843616A042903D1D4E90B138D
:1019800019430843106020684069666A20F0070127
:1019900030460E43012704280CD1A06A0643E06AB2
:1019A00040B12046FFF7E4F920B14020606584F89B
:1019B0003570BAE7206846612046FFF7C5F994F80C
:1019C0005C203F2191408160656584F8357000207E
:1019D000ACE700003F8010F010B5184C102818D06C
:1019E00020281FD0012813D104F02EFE01280FD08B
:1019F00004F12001606A04F037FC206A002807D057
:101A00000F494FF080500860BFF34F8FBFF36F8FC7
:101A100010BD607840F001006070A07840F00100D7
:101A2000A07003E0207840F001002070E0780028EA
:101A3000EED0BDE8104003F0CFBC0000380100201C
:101A400004ED00E0044910B50A68024202D00860C3
:101A5000FFF7C2FF10BD0000143C01402DE9F84F14
:101A6000DFF8BCA10022012503264FF00F090AF17F
:101A7000040BAAF1040E00BF0B6805FA02F4234020
:101A8000A34270D10F7907F00307012F01D0022F75
:101A900016D187684FEA420806FA08FC27EA0C07C5
:101AA000D1F80CC00CFA08FC4CEA070CC0F808C0CE
:101AB0004768A7430C79C4F3001494403C43446046
:101AC0000C79E443A4070AD0C4684FEA420C06FA32
:101AD0000CF7BC438F6807FA0CF72743C7600C79F3
:101AE00004F00304022C12D1D40800EB840CDCF8BF
:101AF00020405707FF0E09FA07F824EA0804D1F836
:101B0000108008FA07F848EA0408CCF82080046836
:101B10004FEA420C06FA0CF7BC430F7907F00307B3
:101B200007FA0CF7274307604C6814F4403F70D065
:101B30003C4C276847F480472760246822F003075D
:101B400004F480440094384C07EB040CDCF808489B
:101B500097074FEA177809FA08F7BC43334FB842A2
:101B600002D1002724E054E0314FB84201D10127CF
:101B70001EE0304FB84201D1022719E02E4FB84283
:101B800001D1032714E02D4FB84201D104270FE003
:101B90002B4FB84201D105270AE02A4FB84201D1A4
:101BA000062705E0284FB84201D1072700E00827A3
:101BB00007FA08F72743CCF80878DAF800405746C8
:101BC000D1F804C09C435FEACC2C00D51C433C6098
:101BD000DBF800405F46D1F804C09C435FEA8C2CE0
:101BE00000D51C433C60DEF800407746D1F804C0C5
:101BF0009C435FEA8C3C00D51C433C60084F083F87
:101C00003C68D1F804C09C435FEACC3C00D51C433F
:101C10003C60521C102AFFF42FAFBDE8F88F000083
:101C2000083C0140443802400030014000000240BE
:101C30000004024000080240000C02400010024074
:101C40000014024000180240001C02400AB18161E9
:101C500070470904FBE700000148806870470000F6
:101C600014000020024881680278114481607047A6
:101C7000140000200B4810B5016841F400710160A8
:101C8000016841F480610160016841F48071016084
:101C9000032000F073F80F2000F006F800F024F89D
:101CA000002010BD003C024070B50D4D04464FF4BD
:101CB0007A712878B1FBF0F00A490968B1FBF0F0BD
:101CC00000F0DDFC48B9102C07D200222146501E3E
:101CD00000F034F800206C6070BD012070BD000081
:101CE00014000020200000200C4882B0016841F45C
:101CF00080410160006800F4804000900748001FA8
:101D0000016841F0805101600068002200F08050BD
:101D100000900F21901E02B000F010B8443802402D
:101D2000002809DB00F01F020121914040098000DA
:101D300000F1E020C0F8001170470000F0B40E4B35
:101D40001B680C46C3F30223C3F10705042D00D919
:101D50000425191D072901D2002300E0DB1E0126FE
:101D600006FA05F1491E214099409E40761E164014
:101D70003143F0BC02F0DABC0CED00E0064900F0A3
:101D8000070208684FF6FF03184040EA0220034AA2
:101D900010430860704700000CED00E00000FA05F9
:101DA0002DE9F0470E46050065D0DFF81481D8F81C
:101DB0000000F7B200F00700B04207D288F80070C8
:101DC000D8F8000000F00700B04254D128683D4C1C
:101DD000810712D5400703D5206840F4E050206009
:101DE0002878000703D5206840F460402060206810
:101DF000A96820F0F000084320602878C0072DD0A3
:101E0000304968680839012812D0022813D0032805
:101E100011D00968890700292DDA216821F0030112
:101E200001432160FFF718FF814641F2883A0EE036
:101E300009688903EFE709688901ECE7FFF70CFF00
:101E4000A0EB0901514502D90320BDE8F0872068C5
:101E5000696800F00C00B0EB810FEFD1D8F80010EA
:101E6000404601F00701B14207D90770006800F051
:101E70000700B04201D00120E7E72878400705D5E8
:101E80002068E96820F4E0500843206028780007C3
:101E900006D52068296920F4604040EAC10020602E
:101EA00000F038F82168084AC1F30311515CC840BA
:101EB0000649086006480068FFF7F6FE0020C4E700
:101EC000003C024008380240C46B0008200000209B
:101ED000180000200448054900680968044AC1F355
:101EE0008221515CC8407047200000200838024021
:101EF000D46B00080448054900680968044AC1F326
:101F00004231515CC8407047200000200838024030
:101F1000D46B0008154810B5006810F00C02144886
:101F200013D01449042A0FD0082A0ED10F4C241FB5
:101F30002268236802F03F025B0207D52068C0F3E5
:101F40008810A0FB010106E0084610BD2168C1F31E
:101F50008811A1FB00010023FEF706FA2168C1F3F6
:101F60000141491C4900B0FBF1F010BD08380240A6
:101F70000024F400001BB7002DE9F84F04006ED0D8
:101F80002078DFF84C93C007A9F104054AD009F185
:101F900004000168C1F38101012908D00068C0F381
:101FA000810002280AD1D9F80000400206D528682D
:101FB000800337D560680028E1D033E06068B0F571
:101FC000803F10D0B0F5A02F286810D020F48030CA
:101FD0002860286820F4802028606068A8B1FFF796
:101FE0003BFE06460DE0286840F48030F4E740F4FC
:101FF00080202860F7E700BFFFF72EFE801B6428D3
:1020000073D828688003F7D50CE0FFF725FE064655
:1020100005E000BFFFF720FE801B6428F0D8286889
:102020008003F7D42078DFF8AC8280074FF0000AF5
:102030003ED5A748001D016811F00C0F08D00068BC
:10204000C0F3810002280BD1D9F80000400207D468
:102050002868800716D5E068012800D112E033E136
:10206000E068B8B10120C8F80000FFF7F5FD0646AA
:1020700005E000BFFFF7F0FD801B0228C0D82868EC
:102080008007F7D52868216920F0F80040EAC100F0
:1020900028600DE0C8F800A0FFF7DEFD064604E06A
:1020A000FFF7DAFD801B02281FD828688007F7D4C5
:1020B0002078000722D5864F87486169703771B153
:1020C00001210160FFF7C8FD064604E0FFF7C4FDEB
:1020D000801B022809D838688007F7D50EE0C0F8C1
:1020E00000A0FFF7B9FD064605E082E0FFF7B4FD6A
:1020F000801B02287DD838688007F7D420784007F5
:1021000068D5DFF8CCB100270BF13C0BDBF8000001
:10211000C0000BD4DBF8001041F08051CBF8001068
:10212000DBF80000012700F0805000906B4E306813
:10213000C00510D4306840F480703060FFF78CFD2B
:10214000009005E0FFF788FD0099401A022850D85A
:102150003068C005F6D55E4EA0686C3601280FD0F9
:102160000528306810D020F001003060306820F081
:1021700004003060A068B8B1FFF76EFD00900FE07A
:10218000306840F00100F4E740F004003060F7E709
:10219000FFF762FD0099411A41F28830814266D80A
:1021A00030688007F4D50EE0FFF756FD009007E099
:1021B000FFF752FD0099411A41F28830814256D80A
:1021C00030688007F4D42FB1DBF8001021F0805183
:1021D000CBF80010A069C8B33D49091D0968C1F3D7
:1021E000810102294AD00228504607D0C8F8600071
:1021F00000E03CE0FFF730FD04463BE04746C8F80E
:102200006000FFF729FD064605E000BFFFF724FD4B
:10221000801B02282BD828688001F7D4D4E9070155
:102220000843A16A2E4A490802EB0141626A41EA69
:102230008211084394F82C1040EA0161C9F800109B
:1022400001203866FFF708FD044606E03EE000BFC7
:10225000FFF702FD001B022809D828688001F7D586
:1022600034E000BFFFF7F8FC001B022802D903206E
:10227000BDE8F88F28688001F4D427E00128F7D062
:10228000D9F80000E26900F4800191421CD1226A71
:1022900000F03F01914217D147F6C071626A0140D8
:1022A000B1EB821F10D1A26A4FF0FF3300F440312E
:1022B00003EB5202B1EB024F06D194F82C1000F060
:1022C0007060B0EB016F01D00120D1E70020CFE7B3
:1022D0000438024000004742800E47420070004030
:1022E0000000FFFF70B5040009D0606A002540B10E
:1022F00025616561A56294F8510040B10CE00120B0
:1023000070BD6068B0F5827FF4D0E561F2E784F8D3
:102310005050204600F044F8022084F85100206814
:10232000016821F040010160A088218900F48270D9
:1023300001F404410843A18901F400610843217CB0
:1023400001F002010843217D01F001010843218BC6
:1023500001F400710843217F01F03801084394F82B
:10236000201001F080010843218D01F40051084341
:1023700021680860A069042101EA104094F8241043
:1023800001F010010843216848602068C16921F408
:102390000061C1616565012084F85100002070BDB5
:1023A0002DE9F04387B0064614216846FEF7A4F8ED
:1023B00034493068884261D133480025016841F4CE
:1023C00080510160006800F4805005902E48143858
:1023D000016841F002010160016801F0020105910C
:1023E000016841F0010101600068022400F0010071
:1023F0000590182001274FF003084FF005098DE8DC
:10240000910369462148FFF729FB80208DE891035D
:1024100069461F48FFF722FB1F4C1E484FF0C0675C
:102420002060C4E901754FF48068C4E90358656110
:102430007812A561C4E9075020466562FFF762FA89
:1024400008B1FEF7D3FCF464A663134C1148603462
:102450004830E4E802074020A4E82101C00244F823
:102460001459A561C4E907500B4865626030FFF755
:1024700049FA08B1FEF7BAFCB464A66307B0BDE838
:10248000F083000000300140443802400004024064
:102490000000024010640240D00400202DE9F84FF3
:1024A000044690F8500000270A9E1D4692468B462F
:1024B0004FF0010901280ED0012084F85000FFF7E9
:1024C000CBFB804694F85100616801280CD0B1F52F
:1024D000827F07D102E00220BDE8F88FA16809B928
:1024E000042801D00227C2E0BBF1000F27D0BAF1C7
:1024F000000F24D01DB394F85100042802D0052009
:1025000084F8510000206065C4F838A0E587A587ED
:10251000C4F830B0E586A586206460642068016850
:10252000490603D4016841F040010160E068B0F55C
:10253000006F606805D0E8B3012D46D07FE0012729
:1025400095E008B1012D39D1206B21680088C86061
:10255000206B801C2063E08E401EE0862EE0206809
:10256000816889070FD5E18E69B1B9F1010F0AD1F0
:10257000216B0988C160206B801C2063E08E401EA7
:10258000E0864FF0000920688168C9070CD0E18F10
:1025900051B1C068A16B0880A06B801CA063E08F64
:1025A000401EE0874FF00109FFF756FBA0EB080043
:1025B000B04200E009E001D3701C50D1E08E002849
:1025C000CDD1E08F0028CAD13FE0206B2168007890
:1025D0000873206B401C2063E08E401EE0862EE0D6
:1025E0002068816889070FD5E18E69B1B9F1010FC3
:1025F0000AD1216B09780173206B401C2063E08EA7
:10260000401EE0864FF0000920688168C9070CD0A1
:10261000E18F51B1C068A16B0870A06B401CA06332
:10262000E08F401EE0874FF00109FFF715FBA0EB9C
:102630000800B04202D3701C01D010E07EB1E08EE1
:102640000028CDD1E08F0028CAD14246314620462D
:1026500001F0B8FB28B101272020606507E00327BF
:1026600005E0A06818B92068C16880680090012062
:1026700084F85100002084F8500038462CE710B54B
:10268000401EB0F1807F01D3012010BD4FF0E02447
:1026900060610F21601702F049F80020A061072057
:1026A0002061002010BD70477047000070B590F8A1
:1026B0003C20012A32D0012480F83C40022280F8DC
:1026C0003D2003685A689D6822F070060A6832430C
:1026D0005A60134B02689A4214D0B2F1804F11D065
:1026E000104B9A420ED0104B9A420BD00F4B9A428D
:1026F00008D00F4B9A4205D00E4B9A4202D00E4B97
:102700009A4204D1496825F080031943916080F80A
:102710003D40002180F83C10084670BD022070BD8D
:10272000000001400004004000080040000C004090
:1027300000040140004001400018004010B50400B2
:1027400003D094F83D0010B107E0012010BD002037
:1027500084F83C00204600F01FF8022084F83D0079
:10276000211D206801F040FC012084F8460084F817
:102770003E0084F83F0084F8400084F8410084F86B
:10278000420084F8430084F8440084F8450084F84B
:102790003D00002010BD000008B5324A01683248F3
:1027A000914210D1016841F00101016000680022EE
:1027B00000F00100009005211820FFF7BFFA182053
:1027C000FFF7AEFA44E0B1F1804F19D0274A9142A9
:1027D00021D1016841F0020101600068002200F08F
:1027E0000200009005212B20FFF7A8FA2B20FFF70D
:1027F00097FA002205212C20FFF7A0FA2C202DE0CB
:102800001948001F016841F001010160006800F0F3
:102810000100009008BD164A91420ED1016841F4B2
:10282000803101600068002200F4803000900521B2
:102830001820FFF783FA182010E00E4A9142E9D1E0
:10284000016841F400310160006800F4003000903C
:10285000002205211920FFF771FA1920BDE8084070
:10286000FFF75EBA00000140443802400004014016
:10287000004001400044014090F83D10012901D082
:1028800001207047022180F83D100168CA6842F0BB
:102890000102CA6000681149884214D0B0F1804F2B
:1028A00011D00F4988420ED00E4988420BD00E49F4
:1028B000884208D00D49884205D00D49884202D08F
:1028C0000C49884204D1816801F00701062903D030
:1028D000016841F0010101600020704700000140E3
:1028E0000004004000080040000C004000040140CB
:1028F000004001400018004070B5044690F83C00CC
:102900000025012817D0012684F83C60022084F8B5
:102910003D002068826822F0770222F47F428260C4
:102920000868502838D00DDC20284FD005DC90B343
:10293000102811D14AE0022070BD302846D040282E
:102940000AD13BE060282FD070280DD0B0F5805F11
:1029500003D0B0F5005F12D0012584F83D6000205F
:1029600084F83C00284670BDCB68D1E9012120687D
:1029700001F09EFB2068816841F0770109E0CB6897
:10298000D1E90121206801F093FB2068816841F4BE
:1029900080418160E1E719E0CA684968206801F078
:1029A0005BFC5021206806E0CA684968206801F095
:1029B00064FC6021206801F085FBCEE7CA684968A5
:1029C000206801F049FC40212068F4E722680146B4
:1029D0001046F0E7704770B50446006801694FF093
:1029E0000005C943890715D4C168C943890711D4B3
:1029F000E91E016101202077206880698007204658
:102A000002D0FFF7E7FF04E000F0C2F8204600F034
:102A100054F9257720680169C943490717D4C1686B
:102A2000C943490713D46FF00401016102202077E4
:102A30002068806910F4407F204602D0FFF7CAFF6B
:102A400004E000F0A5F8204600F037F9257720686B
:102A50000169C943090716D4C168C943090712D4DB
:102A60006FF008010161042020772068C0698007A9
:102A7000204602D0FFF7AEFF04E000F089F82046C0
:102A800000F01BF9257720680169C943C90617D4EE
:102A9000C168C943C90613D46FF010010161082051
:102AA00020772068C06910F4407F204602D0FFF7ED
:102AB00091FF04E000F06CF8204600F0FEF8257766
:102AC00020680169C943C90708D1C168C943C9075A
:102AD00004D1891E0161204600F0F0F820680169E8
:102AE000C943090609D4C168C943090605D46FF072
:102AF000800101612046FFF7D6FD20680169C943C6
:102B0000490609D4C168C943490605D46FF040019C
:102B10000161204600F0D3F820680169C9438906A5
:102B20000BD4C168C943890607D46FF02001016145
:102B30002046BDE87040FFF7B7BD70BD10B586B048
:102B4000044614216846FDF7D7FC0E4920688842E8
:102B500015D10D48016841F0200101600068012194
:102B600000F020000590402000900220CDE90101F6
:102B700003900320049069460448FEF76FFF06B0F7
:102B800010BD0000004401403038024000140240F3
:102B9000704770B5044690F83C0000260D460128A9
:102BA0000FD0012084F83C006AB1042A1DD0082A05
:102BB0002FD00C2A3FD00126002084F83C0030465C
:102BC00070BD022070BD206801F084FA2068816920
:102BD00041F0080181612068816921F0040181616F
:102BE000206881692A69114311E0206801F0A2FA86
:102BF0002068816941F4006181612068816921F464
:102C000080618161206881692A6941EA02218161CC
:102C1000D2E7206801F0C4FA2068C16941F00801D8
:102C2000C1612068C16921F00401C1612068C169E6
:102C30002A69114311E0206801F0E6FA2068C169B1
:102C400041F40061C1612068C16921F48061C16102
:102C50002068C1692A6941EA0221C161ACE710B567
:102C6000040003D094F83D0010B107E0012010BD2E
:102C7000002084F83C00204600F01EF8022084F872
:102C80003D00211D206801F0AFF9012084F84600C5
:102C900084F83E0084F83F0084F8400084F8410046
:102CA00084F8420084F8430084F8440084F8450026
:102CB00084F83D00002010BD704770477047704792
:102CC000704710B504460068406994F83D10C0F3A1
:102CD000C010212911D180B12068143050E8001FA4
:102CE00021F0800140E80012002AF5D1606B08B1A4
:102CF000FEF7DDFC204601F001FB2068406994F8F6
:102D00003E10C0F38010222911D180B12068143008
:102D100050E8001F21F0400140E80012002AF5D1E0
:102D2000A06B08B1FEF7C3FC204601F0C0FA0020FA
:102D300010BD7047F8B5016804460868CA684B6959
:102D400010F00F0F4FF0000559D003F0010602F408
:102D50009077374365D0C10705D0D10503D5216CE5
:102D600041F001012164410705D5D90703D0216C49
:102D700041F002012164810705D5D90703D0216CF8
:102D800041F004012164010707D502F0200131431D
:102D900003D0216C41F008012164216C00293AD054
:102DA000800604D5900602D5204601F0B5FA2068C9
:102DB0004069216CC0F38010090700D460B320463D
:102DC00001F075FA20684069400621D5206814306A
:102DD00050E8001F21F0400140E80012002AF5D120
:102DE000A06BA8B16C490165A06BFEF7A9FC002897
:102DF00011D0A06B016D01B0BDE8F040084783061B
:102E00000FD593060DD52046BDE8F84001F084BAF1
:102E10002046FFF78EFFF8BD2046FFF78AFF2564A6
:102E2000F8BD266B2023012E79D1C60677D5D606AC
:102E300075D50868486800904869400640D5A16B80
:102E4000086840680004000CEAD0A28D8242E7D9ED
:102E5000E085C869B0F5807F2DD020680C3050E83F
:102E6000001F21F4807140E80012002AF5D120688B
:102E7000143050E8001F21F0010140E80012002A40
:102E8000F5D12068143050E8001F21F0400140E8DF
:102E90000012002AF5D184F83E30256320680C30FA
:102EA00050E8001F21F0100140E80012002AF5D17F
:102EB000A06BFEF7FCFBA08DE18D401A81B229E0EA
:102EC000A08DE18D401A81B2E08D0028A8D00029A4
:102ED000A6D020680C3050E8002F22F4907240E811
:102EE0000026002EF5D12068143050E8002F22F083
:102EF000010240E80026002EF5D184F83E3025631B
:102F000020680C3050E8002F22F0100240E8002327
:102F1000002BF5D12046FFF7D3FEF8BDFFE70506ED
:102F20002BD5150629D594F83D002128F5D1A068A8
:102F3000B0F5805F01D12069B0B1206A411C2162E7
:102F4000216800784860E08C401E0004000CE0849A
:102F5000E3D12068C16821F08001C1602068C168A8
:102F600041F04001C160D8E7206A0088C0F3080042
:102F70004860206A801C2062E5E74006CDD55006F7
:102F8000CBD5CA68204622F04002CA6084F83D30A2
:102F900000F0A5F9C1E700009F42000870B50400E9
:102FA00004D094F83D00002510B106E0012070BD6A
:102FB00084F83C50204600F023F8242084F83D009B
:102FC0002068C16821F40051C160204601F004FA74
:102FD0002068016921F4904101612068416921F074
:102FE0002A0141612068C16841F40051C160256433
:102FF000202084F83D0084F83E00002070BD0000D1
:103000002DE9F04F87B0044614216846FDF774FAA5
:10301000A748DFF898821438D4F800C0A44B0221E6
:1030200003224027002506154FF00709C44572D139
:10303000D3F800C0AA464CF0100CC3F800C01B68BF
:1030400003F010030593036843F002030360036871
:1030500003F002030593036843F001030360006873
:10306000884600F0010005908020CDE90008CDE9F8
:10307000025293466946CDF810908E48FEF7EEFC5A
:103080007010CDE90008CDE9025B6946CDF81090DB
:103090008948FEF7E3FCDFF82882884940464FF074
:1030A0000069C8F80010C0E90195C0E90356C8F8E6
:1030B00014504FF4403BC8F81850C8E9075BC8F8F3
:1030C0002450FEF71FFC08B1FDF790FE7C4DC4F8BC
:1030D00038807A486035C8F838403030AF60C5E98C
:1030E0000009C5E903A6C5F814A0C5F818A0C5E9EC
:1030F00007AB2846C5F824A0FEF704FC08B1FDF78D
:1031000075FE6563002205212520AC63FEF716FEDF
:10311000252064E0FFE7DFF8AC81C44564D1644B4F
:10312000AA461B1FD3F800C04CF4802CC3F800C083
:103130001B6803F480230593036843F004030360D2
:10314000006800F0040005904FF440608DE8230013
:10315000CDE9032969465C48FEF780FCDFF8609101
:103160005A4909F1C00948464FF00068C9F80010F3
:10317000C0E90185C0E90356C9F81450C9F81850D0
:10318000C9F81C50C9F82050C9F82450FEF7BAFB02
:1031900008B1FDF72BFE4E4DC4F838904B48C9F8E6
:1031A00038403030AF60C5E90008C5E903A6C5F86E
:1031B00014A0C5F818A0C5F81CA0C5F820A0284682
:1031C000C5F824A0FEF79EFB08B1FDF70FFE65636E
:1031D000002205212720AC63FEF7B0FD2720FEF773
:1031E0009FFD07B0BDE8F08FDFF8E880C445F8D157
:1031F000D3F800C04CF0200CC3F800C01B6803F0EB
:1032000020030593036843F040030360006800F067
:10321000400005904FF484408DE823000820CDE95C
:10322000032069462C48FEF719FCDFF8A4802349E7
:1032300008F16008603940464FF0206AC8F8001075
:10324000C0E901A5C0E90356C8F81450C8F81850E1
:10325000C8F81C50C8F82050B146C8F82450FEF7F2
:1032600051FB08B1FDF7C2FD194EC4F83880C036D5
:10327000C8F83840C6E90275C6E90495B5610F483B
:10328000F561356218307562C6E9000A3046FEF70E
:1032900039FB08B1FDF7AAFD66630022052147202E
:1032A000B463FEF74BFD472099E700000010014092
:1032B000443802400004024000000240886402409A
:1032C000C407002000480040000802402860024077
:1032D000E4080020001401400018024070477047C5
:1032E000FEE700000F4810B50D4901600321416061
:1032F00000214FF410228160C0E903124FF4001244
:103300004261017641768176C17601774177FDF79A
:10331000DEFF002803D0BDE81040FDF767BD10BDFB
:1033200000640040280400200F4810B50D490160DA
:103330000321416000214FF410228160C0E9031293
:103340004FF400124261017641768176C1760177B1
:103350004177FDF7BCFF002803D0BDE81040FDF722
:1033600045BD10BD0068004050040020294808B544
:10337000016841F480010160016801F4800100915D
:10338000016841F4001101600068002200F400109F
:10339000009005210C20FEF7D1FC0C20FEF7C0FCAC
:1033A000002205210E20FEF7C9FC0E20FEF7B8FC16
:1033B000002205213820FEF7C1FC3820FEF7B0FCC2
:1033C000002205213920FEF7B9FC3920FEF7A8FCC0
:1033D000002205213B20FEF7B1FC3B20FEF7A0FCBC
:1033E000002205214420FEF7A9FC4420FEF798FCAA
:1033F000002205214520FEF7A1FC4520FEF790FCA8
:10340000002205214620FEF799FCBDE80840462031
:10341000FEF786BC3038024010B59CB01C2216491D
:103420006846FDF737F80021684602F0F5F9134CBD
:1034300011491C2220601C3107A8FDF72BF8002140
:1034400007A802F0E9F90C4960601C2238310EA887
:10345000FDF720F800210EA802F0DEF90649A06071
:103460001C22543115A8FDF715F8002115A802F00B
:10347000D3F9E0601CB010BD4C6B000800000020C8
:10348000F0B587B014216846FDF736F84648016864
:1034900041F002010160016801F00201059101683B
:1034A00041F040010160016801F0400105910168AF
:1034B00041F001010160016801F00101059101681D
:1034C00041F008010160016801F0080105910168FF
:1034D00041F004010160016801F0040105910168F7
:1034E00041F080010160016801F0800105910168EF
:1034F00041F02001016000682C4E00F02000059092
:10350000012210213046FEF7A1FB294F012241F292
:1035100001013846FEF79AFB01241020CDE9000492
:10352000022569463046CDE90245FEF797FA30207C
:103530004FF48816CDE90006694602941D48FEF74F
:103540008DFACDE9004669461B480294FEF786FADB
:103550002003CDE900040294694638460394FEF73F
:103560007DFA0094694638460194CDE90245FEF79C
:1035700075FA002205210620FEF7E0FB0620FEF783
:10358000CFFB002205210A20FEF7D8FB0A20FEF718
:10359000C7FB002205211720FEF7D0FB1720FEF7FE
:1035A000BFFB07B0F0BD0000303802400000024011
:1035B000000402400008024000180240104810B504
:1035C0000E4901604FF48271416000210222816046
:1035D000C0E9031201224261520282611022C0E955
:1035E0000721416281620A21C162FEF77BFE002849
:1035F00003D0BDE81040FDF7F9BB10BD003001401D
:103600007804002010B588B01C216846FCF774FFD0
:10361000144813490024C0E900144FF6FF71C0E9B3
:10362000024104618461FFF789F808B1FDF7DEFB10
:103630000C48FFF714FB08B1FDF7D8FB6020CDE97B
:10364000000402940022694606480494FFF7A1FA98
:1036500008B1FDF7CBFB0348FFF770FA08B010BDC7
:1036600000440140B006002010B586B00024184880
:103670000094019402940394049414490594016005
:1036800044F29F11C0E9011442F20F71C0E9031422
:1036900044618461FFF752F808B1FDF7A7FB4FF4CE
:1036A0008050009069460A48FFF726F908B1FDF7F7
:1036B0009DFB049404A906480594FEF7F7FF002833
:1036C00001D0FDF793FB06B010BD000000000140E3
:1036D0009005002010B586B000241648009401948F
:1036E0000294039404944FF080410594016042F2E7
:1036F000D001C0E901146321C0E903148461FFF71C
:103700001DF808B1FDF772FB4FF480500090694638
:103710000848FFF7F1F808B1FDF768FB049404A925
:1037200004480594FEF7C2FF002801D0FDF75EFBB8
:1037300006B010BDD805002010B586B0002417488B
:103740000094019402940394049413490594C0E9ED
:1037500000144FF6FF71C0E90241046144618461C5
:10376000FEF7ECFF08B1FDF741FB4FF480500090ED
:1037700069460A48FFF7C0F808B1FDF737FB049423
:1037800004A906480594FEF791FF002801D0FDF733
:103790002DFB06B010BD00000004014020060020F3
:1037A0001FB5002110480091019102910D4A03912B
:1037B000026044F29F12C0E901216322C0E90321A3
:1037C0008161FEF7BBFF08B1FDF710FB4FF480509D
:1037D000009069460448FFF78FF8002801D0FDF7F4
:1037E00005FB1FBD00400140680600200C4810B5D5
:1037F0000A4901604FF4E1314160002181600C22EF
:10380000C160C0E904128161C161FFF7C7FB0028F4
:1038100003D0BDE81040FDF7E9BA10BD001001402B
:10382000F80600200C4810B50A4901604FF4E13158
:103830004160002181600C22C160C0E904128161F5
:10384000C161FFF7ABFB002803D0BDE81040FDF7D6
:10385000CDBA10BD004800403C0700200C4810B510
:103860000A4901604FF4E1314160002181600C227E
:10387000C160C0E904128161C161FFF78FFB0028BC
:1038800003D0BDE81040FDF7B1BA10BD00140140EF
:1038900080070020F5EEC01AB0EE413AF0EE603A33
:1038A000B0EE404AF1EE10FA00B5024609D1B5EE8D
:1038B000C02AF1EE10FA04D1F5EEC02AF1EE10FAAA
:1038C00078D021EEA10A02EE020A02EEA20A01F06D
:1038D00049FF21EE805A62EE004A92ED011AD2EDC4
:1038E000030A22EE800AD2ED002A21EE202AD2ED30
:1038F000021A22EE811A5C4802EEE12A01EEA01AB9
:10390000F6EE001A52EEA21A40EEA01A60EE020A7B
:1039100064EEA12A45EE610A40EE412A25EE010A35
:1039200090ED041A04EEC20AB5EEC01AF1EE10FAD8
:103930002CDD90ED041AD0ED051A21EE222A9FED20
:103940004B1A42EE011AC0ED051AD0ED041A21EE11
:10395000A02AD0ED061A42EE011AC0ED061AD0EDEB
:10396000041A21EE802AD0ED071A42EE011AC0EDAA
:10397000071A90ED051A34EE014A90ED061A73EE1F
:10398000813A90ED071A33EE013A07E09FED381ABD
:1039900080ED051A80ED061A80ED071A90ED031AE6
:1039A00001EE224A90ED031A41EE203AD0ED030ACF
:1039B00000EE803A9FED2F0AD2ED021A24EE002A83
:1039C00063EE802A23EE001A92EC020A92ED033A8B
:1039D00060EEC23A41EEE23A43EE413A73EE804A7B
:1039E00060EE023AC2ED004A41EE813A43EE623A9D
:1039F00033EEA04A60EE223A20EE010A82ED014A3F
:103A000040EEC13A00EEA20A43EE023A01EEC20ACB
:103A100073EEA13A70EE030A24EEA40AC2ED023A54
:103A2000C2ED030A04EE040A03EEA30A00EEA00AA4
:103A300001F098FED2ED000A60EE800AC2ED000AA5
:103A4000D2ED010A60EE800AC2ED010AD2ED020A4F
:103A500060EE800AC2ED020AD2ED030A20EE800A6F
:103A600082ED030A00BD0000380100206F12833A86
:103A7000000000006F12033AFEE7FEE7A0B1D0EDB0
:103A8000101AC0ED111A90ED0F1A80ED101AC0ED4A
:103A9000060A80ED070A30EEC00A80ED0F0A0178B1
:103AA00029B101293BD078E09FED3D0A7047D0ED68
:103AB000010A60EE801AC0ED091AD0ED0A0A90EDF5
:103AC000022A42EE000A30EE410AC0ED0A0A90EDE9
:103AD0000D2A80ED0E2A90ED0C2A80ED0D2A80ED46
:103AE0000C0A90ED031A21EE001A80ED0B1A90EDEE
:103AF000050AF4EEC00AF1EE10FA09DCB1EE400A54
:103B0000F4EEC00AF1EE10FA02D390ED0A0A01E0D9
:103B100080ED0A0A31EE800A30EE010A2BE070EEE9
:103B2000410A90ED012A20EE822A80ED092AD0ED8B
:103B3000020A60EE800AC0ED0A0AD0ED0D2A72EE8C
:103B4000200AC0ED0E2AD0ED0C2AC0ED0D2AF0EEB1
:103B5000002A01EE620A30EE210A80ED0C0A90ED97
:103B6000031A21EE000A80ED0B0A30EE800AD0ED38
:103B7000080A30EE200A80ED080AD0ED040AB4EEFF
:103B8000E00AF1EE10FA06DCF1EE600AB4EEE00AAB
:103B9000F1EE10FA01D2C0ED080A90ED080A704764
:103BA00000000000002828D0002A26D0017092EDE5
:103BB000001A80ED011A92ED011A80ED021A92EDC1
:103BC000021A80ED031A80ED040A9FED0C0AC0ED85
:103BD000050A80ED0E0A80ED0D0A80ED0C0A80EDDD
:103BE000080A80ED0B0A80ED0A0A80ED090A80EDD3
:103BF000110A80ED100A80ED0F0A704700000000E6
:103C00002DE9F74F8E462F490868036823F001031A
:103C100003602D4803681C6824F001041C600B68D5
:103C20001C68E407F7D103E01C6824F001041C6061
:103C300003681C68E407F7D1244F254DDFF88CC0DA
:103C40004C3FDFF88CB00C68DFF88490B83D4FF43F
:103C50000016A7F1040AABF1600B644501D93E6080
:103C600009E04C4502D9CAF8006004E05C4501D97E
:103C7000EE6000E0AE60D0F800804FF00066E045F6
:103C800001D93E6009E04B4502D9CAF8006004E062
:103C90005B4501D9EE6000E0AE60C4F80CE004685A
:103CA000009BE3600B685A6003685A6009680A6801
:103CB00042F001020A600068016841F00101016000
:103CC000BDE8FE8FD004002030050020586402407B
:103CD000B86002402DE9F04F8346344803685C68C1
:103CE00044F002045C6003685C6844F001045C60BA
:103CF0000068036843F0400303602D4803681C68B4
:103D000024F001041C6003681C68E407F7D1294E05
:103D1000294C284D4C3EDFF8A0A0274FB83C4FF46B
:103D2000001CA6F10409AAF1600AAB4202D9C6F848
:103D300000C00BE0BB4202D9C9F800C006E0534501
:103D400002D9C4F80CC001E0C4F808C0DFF86CC0A8
:103D5000C3F808C00368D96001684A600068016858
:103D600041F010010160164801680B6823F001035F
:103D70000B6001680B68DB07F7D14FF00063A942C5
:103D800001D9336009E0B94202D9C9F8003004E032
:103D9000514501D9E36000E0A360C1F808C00368A1
:103DA000C3F80CB000684260BDE8F08F78040020D2
:103DB000D004002058640240B86002400C3001403A
:103DC0003005002038B504461248134B0068B0FB9C
:103DD000F3F04FF47A73584300906068B0F5827F37
:103DE0000DD10B46009200228021204600F016F8EB
:103DF00070B1606D40F020006065032038BD009810
:103E000030B1401E009020688068C0430006F6D59F
:103E1000002038BD2000002000366E012DE9F84357
:103E20001E46914688460446089DFDF715FF401B37
:103E3000351AFDF711FF074625480068C0F3CB305F
:103E4000684338E0701C37D0FDF706FFC01BA8425E
:103E500003D215B1009860B32CE02068416821F0CE
:103E6000E00141606068B0F5827F0BD1A068B0F5D9
:103E7000004F02D0B0F5806F04D12068016821F0B6
:103E800040010160A06AB0F5005F09D120680168B7
:103E900021F4005101602068016841F40051016083
:103EA000012084F85100002084F850000320BDE870
:103EB000F8830025401E00902068816838EA0100E0
:103EC00004D000214945BDD10020F0E70121F9E7E8
:103ED00020000020012001F093FCFBE710B5FDF766
:103EE000C1FE02F0B1FB012803D0BDE8104002F092
:103EF000FBBA10BD30B593B030216846FCF7FCFA30
:103F000014210CA8FCF7F8FA1D480025016841F0BF
:103F100080510160006800F08050119019480168DC
:103F200041F4804101600068022400F48040119057
:103F300001200090000401908001CDE90640062098
:103F40000890A820CDE9090404200B906846FEF7EC
:103F500013F808B172B6FEE70CA90F2081E8310012
:103F60004FF4A0500F904FF48050109005210CA8F2
:103F7000FDF716FF002801D072B6FEE713B030BD82
:103F800040380240007000400248016841F470016E
:103F90000160704788ED00E010B50448FEF71BFD96
:103FA000BDE810400248FEF716BD00009005002055
:103FB0006806002010B50448FEF70DFDBDE810406E
:103FC0000248FEF708BD000090050020B006002062
:103FD0000148FEF700BD0000200600200148FEF762
:103FE000FABC000020060020F0B50268254C264DE2
:103FF000264E274F274B4FF0804CA04209D06045FA
:1040000007D0A84205D0B04203D0B84201D09842B0
:1040100004D122F0700E4A6842EA0E02A0421BD080
:10402000604519D0A84217D0B04215D0B84213D07D
:10403000984211D0184DA8420ED0184DA8420BD06E
:10404000174DA84208D0174DA84205D0164DA842DA
:1040500002D0164DA84203D122F44075CA682A4303
:104060004D6922F080022A4302608A68C2620A68AF
:104070008262A04201D0984201D109690163012105
:104080004161F0BD00000140000400400008004014
:10409000000C004000040140004001400044014089
:1040A0000048014000180040001C00400020004073
:1040B00010B5846842EA032224F47F440A43224371
:1040C000826010BD826822F070020A4342F007014C
:1040D00081607047F0B5026A22F001020262036A51
:1040E00042688469124E24F073050C682C4323F057
:1040F00002058B682B430D4DA84201D0B04205D17B
:1041000023F00807CB683B4323F00403A84201D007
:10411000B04205D14D6922F4407215438A692A43A1
:1041200042608461496841630362F0BD0000014060
:1041300000040140F0B5026A22F010020262026A35
:10414000436884690D6824F4E64444EA05248D68D4
:1041500022F0200242EA05120F4D104EA84201D073
:10416000B04206D1CF6822F0800242EA071222F064
:104170004002A84201D0B04207D14D6923F4406308
:1041800043EA85038D6943EA850343608461496896
:1041900081630262F0BD00000000014000040140A4
:1041A000F0B5026A22F480720262026A4368C4694E
:1041B00022F4007224F073050C68124E2C438D68B3
:1041C00042EA05220E4DA84201D0B04206D1CF6886
:1041D00022F4006242EA072222F48062A84201D05F
:1041E000B04207D14D6923F4405343EA05138D696A
:1041F00043EA05134360C4614968C1630262F0BDCC
:10420000000001400004014030B5026A22F48052EF
:104210000262046A4268C3690D6823F4E64343EA14
:1042200005238D6824F4005444EA0534084DA8425F
:1042300002D0084DA84204D14D6922F4804242EADE
:1042400085124260C36149680164046230BD0000A8
:10425000000001400004014010B5036A046A24F024
:1042600001040462846924F0F00444EA021423F097
:104270000A020A438461026210BD10B5036A23F08A
:10428000100303628369046A23F4704343EA023231
:1042900024F0A00343EA01118261016210BD10B550
:1042A000806B0021C185C184FEF743FD10BD01680C
:1042B0000C3151E8002F22F4907241E80023002BCA
:1042C000F5D10168143151E8002F22F0010241E8D4
:1042D0000023002BF5D1016B012909D101680C31B4
:1042E00051E8002F22F0100241E80023002BF5D105
:1042F000202180F83E1000210163704701680C31D5
:1043000051E8002F22F0C00241E80023002BF5D134
:10431000202180F83D10704708B590F83E10222902
:1043200001D0022008BD82684FF480539A4201D127
:10433000016921B1816A9A421BD04AB10AE0026840
:10434000816A5268C2F308020A80816A891C08E007
:10435000026972B10268526802F07F020A70816AD3
:10436000491C8162C18D491E0904090CC18503D015
:1043700019E002685268F1E70168CA6822F0200279
:10438000CA600168CA6822F48072CA6001684A691A
:1043900022F001024A61202180F83E10016B0129C0
:1043A00003D0FEF79BFF002008BD002101630168D8
:1043B0000C3151E8002F22F0100241E80023002BBD
:1043C000F5D101680A68D20602D50A6849680091E9
:1043D000818DFEF775FCE6E770B50446006801695B
:1043E000E26821F44051114301612169A068E2694A
:1043F00008436169114308432168CA6849F20C63A4
:104400009A430243CA6020684169A26921F440715D
:104410001143416131492068884202D030498842C5
:1044200002D1FDF767FD01E0FDF754FDE2690023CD
:10443000192164253226B2F5004F626828D0A0FB0E
:104440000101930F9200FBF78FFF0146B0FBF5F0DF
:104450006FF01802504301EB800006EB0010B0FB38
:10446000F5F000F0F002B1FBF5F002EB0012B1FB49
:10447000F5F06FF01803584301EB800006EB0010D5
:10448000B0FBF5F000F00F0021681044886070BDAB
:10449000A0FB010192185B41FBF766FF0146B0FBF0
:1044A000F5F00201B1FBF5F06FF01803584301EB92
:1044B000800006EBC000B0FBF5F000F0F80002EB66
:1044C0004002B1FBF5F0584301EB800006EBC00061
:1044D000B0FBF5F000F00700D6E700000010014047
:1044E000001401400D4808B500680168C1F30011CF
:1044F00071B10168406800900848FEF7E2FB084887
:1045000000684068C0F16401064801600121416013
:10451000BDE808400148FEF70DBC0000F806002089
:10452000C4070020BC00002010B50448FCF74AFC7A
:10453000BDE810400148FEF7FDBB00003C0700202D
:104540000C4808B501680A684A680092CA6842F0D7
:104550001002CA6001684A6942F040024A611221B1
:1045600000910168044B806BA3F11802091DFCF750
:10457000C9FA08BD3C070020AC48002070B50446CD
:1045800000884C4DC0F30A032B806078A178C008E6
:1045900040EA4110C0F30A016980A078E2788009FE
:1045A00040EA82002279A3F5806340EA8220C0F3CA
:1045B0000A02AA8020796679400840EAC610C0F352
:1045C0000A06EE806079A1F58061C0F30110A8723F
:1045D0006079A2F580628009E872E088A88120896C
:1045E000E88160892882207BA874607BE874E08978
:1045F000A882208A2B806980AA80A6F58066EE803A
:10460000A0F5806028812C4E0020215C3154401C94
:104610000728FADD3321284800F03EFD0820321833
:10462000215C401C02F8081C0F28F8DD34212248C8
:1046300000F032FD207C3070607C7070A07CB07027
:104640001D48A17B223801F00102428001F00202E4
:10465000828001F00402C28001F00802028101F0B0
:104660004002428101F08002828101F01002C28189
:1046700001F020010182A97C0170E97C4170A98AC6
:1046800001F48072428201F40072828201F480623D
:10469000C28201F40062028301F48052428301F479
:1046A0000052828301F48042C28301F400410184FC
:1046B00070BD0000C4480020B20000200148FEF791
:1046C00039BB0000800700200C4808B501680A6863
:1046D0004A680092CA6842F01002CA6001684A69DA
:1046E00042F040024A61C82100910168044B806B8E
:1046F000A3F1C802091DFCF705FA08BD80070020D8
:10470000CC470020FEE74100080218BF04200A0E33
:1047100018BF40F001004FF07F4232EA010108BFAC
:1047200040F00200012808BF052070470907090E64
:10473000002804DB00F1E02080F80014704700F04E
:104740000F0000F1E02080F8141D704710B54FF005
:104750000E402DED028BB0EE408A18EE104A00EBB1
:104760004400B0F1506F4AD84FF0FC40B0EB440F1A
:1047700022D2B0EEC80AF7EE000A30EEC00AF6EE1A
:10478000000A60EE208A18EE900A01F0B3FB01EEF9
:10479000100A14F0004F1DBFDFED2D0A9FED2D0A0A
:1047A000B1EE411ADFED2C0A08BF9FED2C0AF8EE9E
:1047B000001A21EE218A05E0DFED290A68EE088A59
:1047C000B0EE600A9FED271ADFED271A30EE080AD7
:1047D00048EE811A9FED251A08EEA11ADFED241A82
:1047E00048EE811A9FED231A08EEA11A68EE281AE6
:1047F000BDEC028B01EE810A30EE200A10BD4FF0B5
:10480000E440B0EB440F0CD918EE100AFFF77BFF21
:10481000042808BF00F066F9B0EE480ABDEC028B30
:1048200010BD4FF07F40B0EB440F07D2B0EE480A06
:10483000BDEC028BBDE8104000F046B90120FBF74B
:104840008AFEBDEC028BBDE8104000F043B90000C9
:104850000000C9BF22AAFDB90000C93F22AAFD3944
:104860000000000024FE1C3DC78AD83C1E67383D6E
:104870001B93993DAFAA2A3E10EE100A10B510EE18
:10488000901A4FF0684202EB40032DED028BB3F11A
:10489000654F3CBF02EB4102B2F1654F7CD200BFD5
:1048A000C0F3C753C1F3C7529A1A1B2A09DD10F08F
:1048B000004F14BF9FED6E0A9FED6E0ABDEC028B98
:1048C00010BD12F11A0F1BDA11F0004F09D010F0D1
:1048D000004F0CBF9FED680A9FED680ABDEC028B8C
:1048E00010BD80EE208A18EE100AFFF70CFF042896
:1048F00008BF00F0F7F8B0EE480ABDEC028B10BD1F
:104900004200B2EB410F37D910F0004F19BFDFED75
:104910005C1A9FED5C1ADFED5C1A9FED5C1AB0EE3D
:10492000602A0A46F1EE400A80F00041B0EE420AE9
:1049300010460A1A5200B2F1807F34D2484010F07B
:10494000004FDFED532A9FED533A1DBFBEEE002A04
:1049500071EEE21A31EE431AB6EE002A04BF71EE90
:10496000A21A31EE031AF0EE402A42EE602A40EE1F
:10497000020A82EEA02A18E011F0004F04BF9FED5A
:10498000461AF0EE411AD4D010F0004F1CBFDFEDF4
:10499000431A9FED431A00E026E004BFDFED411A01
:1049A0009FED411AC5E780EE202A22EE020ADFEDD4
:1049B0003F0ADFED3F2ABDEC028B40EE202ADFEDFF
:1049C0003D0A40EE220ADFED3C2A40EE202ADFEDD0
:1049D0003B0A40EE220A22EE000A00EE201A31EED7
:1049E000020A30EE210A10BD4FF07F42B2EB400FB9
:1049F00028BFB2EB410F05D2BDEC028BBDE81040E1
:104A000000F065B840EA01035B0008BF41F0FF41D8
:104A10000BD0B2EB400F08BFB2EB410F08D120F032
:104A2000804000EE100A21F0804100EE901A37E736
:104A3000B2EB400F12BF5FEA410240F0FF4001F0CD
:104A400000413FF42DAF4A0092EA40033FF528AF02
:104A5000002AACBF9FED1A1A9FED1A1A20EE010A28
:104A600060EE810A10EE100A10EE901A18E70000AE
:104A7000DB0FC9BFDB0FC93FDB0F4940DB0F49C06C
:104A80000000C9BF22AAFDB90000C93F22AAFD3912
:104A90000060ED3EC30ACE3700000000000049C0B0
:104AA00022AA7DBA0000494022AA7D3A2DAD65BDFB
:104AB0008FB8D53D0FB511BE61C84C3EA8AAAABE9D
:104AC0000000804F0000802F30EE000A704730EE6B
:104AD000200A7047DFED020A80EEA00A704700004E
:104AE000000000009FED020A20EE000A704700005F
:104AF00000000010F8B500208DF800000446FBF718
:104B000087FD8020FBF7F6FE5520FBF7F3FE5520CE
:104B1000FBF7F0FE8DF80000FBF772FD9620FBF727
:104B2000D4FDFBF775FD8020FBF7E4FE5520FBF775
:104B3000E1FE5520FBF7DEFE8DF80000FBF760FD7F
:104B40009620FBF7C2FDFBF763FDB6217E20FBF745
:104B5000F8FEFBF755FD5020FBF7B5FDFBF758FDC0
:104B60008020FBF7C7FE5520FBF7C4FE5520FBF75E
:104B7000C1FE8DF80000FBF743FD9620FBF7A5FD75
:104B8000FBF746FD8020FBF7B5FE5520FBF7B2FE94
:104B90005520FBF7AFFE8DF80000FBF731FD9620A6
:104BA000FBF793FD9DF800001E2801D0FF20F8BD03
:104BB000194D00BFFBF72CFD04EB44067719A85DE7
:104BC0007978FBF7BEFEFBF71BFD9620FBF77DFD1A
:104BD000FBF71EFDA85D40F08000FBF78BFE552023
:104BE000FBF788FE5520FBF785FE8DF80000FBF7EC
:104BF00007FD9620FBF769FD78789DF80010884244
:104C000004D004EB440028448078F8BD641CE4B26E
:104C1000062CCFD30020F8BD0C0100202DE9F04177
:104C200086B00020019002908DF800000546FBF749
:104C3000EFFC8020FBF75EFE5520FBF75BFE552066
:104C4000FBF758FE8DF80000FBF7DAFC9620FBF727
:104C50003CFDFBF7DDFC8020FBF74CFE5520FBF70D
:104C600049FE5520FBF746FE8DF80000FBF7C8FC17
:104C70009620FBF72AFDFBF7CBFCB6217E20FBF745
:104C800060FEFBF7BDFC5020FBF71DFDFBF7C0FCF1
:104C90008020FBF72FFE5520FBF72CFE5520FBF75D
:104CA00029FE8DF80000FBF7ABFC9620FBF70DFD0D
:104CB000FBF7AEFC8020FBF71DFE5520FBF71AFE2C
:104CC0005520FBF717FE8DF80000FBF799FC9620A6
:104CD000FBF7FBFC9DF800001E2803D0FF2006B068
:104CE000BDE8F081804CDFF8048200BFFBF790FC48
:104CF00005EB45063719A05D7978FBF722FEFBF737
:104D00007FFC9620FBF7E1FC88F80050FBF780FC65
:104D1000A05D40F08000FBF7EDFD5520FBF7EAFDBC
:104D20005520FBF7E7FD8DF80000FBF769FC9620A6
:104D3000FBF7CBFC78789DF80010884204D005EB97
:104D4000450020448078CAE75020FBF7BCFC6D1C6E
:104D5000EDB2042DCAD30025FBF75AFC05EB45073D
:104D60003E19717B307BFBF7ECFDFBF749FC96208D
:104D7000FBF7ABFCFBF74CFC307B40F08000FBF713
:104D8000B9FD5520FBF7B6FD5520FBF7B3FD8DF8B7
:104D90000000FBF735FC9620FBF797FC88F80050E5
:104DA000707B9DF80010884204D005EB450020443C
:104DB000807B94E75020FBF786FCFBF729FC9220D0
:104DC000FBF798FD062201A91220FBF775FDFBF702
:104DD00017FC9DF805006D1C01029DF80400EDB262
:104DE000014303A8022D20F817109DF807109DF825
:104DF000062000EB470042EA012141809DF809109E
:104E00009DF8082042EA01218180A5D3FBF700FC30
:104E100000216D20FBF795FDFBF7F2FB9620FBF7D9
:104E200054FCFBF7F5FBED20FBF764FD5520FBF789
:104E300061FD5520FBF75EFD8DF80000FBF7E0FB00
:104E40009620FBF742FC9DF8000008B1042046E7DD
:104E5000FBF7DEFBB6217E20FBF773FDFBF7D0FBF3
:104E60005020FBF730FCBDF90C00BDF91210411ABF
:104E700040F2555081420EDBBDF90E10BDF91420F1
:104E8000891A814207DBBDF91000BDF91610401ADE
:104E9000B0F52A7F01DA802021E7FBF7B9FB8020FB
:104EA000FBF728FD5520FBF725FD5520FBF722FDDC
:104EB0008DF80000FBF7A4FB9620FBF706FCFBF740
:104EC000A7FB8020FBF716FD5520FBF713FD5520AF
:104ED000FBF710FD8DF80000FBF792FB9620FBF727
:104EE000F4FB0020FBE60000DC6B00080001002062
:104EF000F8B500248DF80040FBF79CFB69460020C4
:104F0000FBF7ECFCFBF78EFB9620FBF7DEFBFBF7D9
:104F100091FB69460020FBF7E1FCFBF783FB962041
:104F2000FBF7D3FBFBF786FBB6211420FBF709FD4B
:104F3000FBF778FB5020FBF7C6FBFBF77BFB6946D2
:104F40000020FBF7CBFCFBF76DFB9620FBF7BDFBCE
:104F5000FBF770FB69460020FBF7C0FCFBF762FB28
:104F60009620FBF7B2FB9DF800000F2801D0FF2030
:104F7000F8BD154DFBF75EFB04EB44067719A85D01
:104F80007978FBF7DEFCFBF74DFB9620FBF79DFBEA
:104F9000FBF750FBA85D6946FBF7A0FCFBF742FB63
:104FA0009620FBF792FB78789DF80010884204D099
:104FB00004EB440028448078F8BD641CE4B2062C5D
:104FC000D8D30020F8BD00001E01002038B5002015
:104FD0008DF800000446FBF72DFB69460020FBF727
:104FE0007DFCFBF71FFB9620FBF76FFBFBF722FB1B
:104FF00069460020FBF772FCFBF714FB9620FBF7D9
:1050000064FBFBF717FBB6211420FBF79AFCFBF7B8
:1050100009FB5020FBF757FBFBF70CFB6946002010
:10502000FBF75CFCFBF7FEFA9620FBF74EFBFBF769
:1050300001FB69460020FBF751FCFBF7F3FA9620D1
:10504000FBF743FBFBF7F6FA01213C20FBF779FC69
:10505000FBF7E8FA5020FBF736FB00BFFBF7EAFA54
:1050600069463C20FBF73AFCFBF7DCFA9620FBF79D
:105070002CFB641C9DF80000E4B2800701D40A2CCC
:10508000ECD30A2C03D09DF80000400701D5402046
:1050900038BD002038BD000000B587B00246009141
:1050A00000210291039108210491012369460248DD
:1050B000FBF7B0FE07B000BD280400202DE9F8433F
:1050C0001A4D194F0024A5F5887800BF37F9140050
:1050D00004EB041100EE100A04EB440005EB80061B
:1050E000F8EEC00AB6F9060000EE100A08EB8100DF
:1050F000B8EEC00A00F0CAFBBDEEC00A641CE4B200
:1051000010EE100A042C7080E0D3B5F92600009050
:10511000B5F91A30B5F90E20B5F90210002000F0EB
:10512000BBFEBDE8F8830000E0000020EC49002051
:1051300030B50C480021018041808180C1800A493E
:105140008A7A032A0DD10B884A8889889C1A0C44D4
:1051500004809C1865184580D21A0A448280091B75
:10516000C18030BDE0000020C4480020064801682E
:105170000648B1FBF0F2064802704FF47A72B1FBB8
:10518000F2F14160704700002000002040420F0013
:105190003001002070B54FF0E02400226569094914
:1051A000A36909784843A1699942FCD002D2A3EBD4
:1051B000010302E0A5EB010633441A440B46824288
:1051C000F1D370BD300100200A49896B814207D1BB
:1051D0000068016841F4002101600748FFF7CEB97B
:1051E0000649896B814204D10068016841F40021BD
:1051F000016070473C070020944800208007002091
:105200000A49896B814207D10068016821F40021B5
:1052100001600748FFF7B2B90649896B814204D1A2
:105220000068016821F40021016070473C070020FC
:10523000AC480020800700202DE9F0411D462DEDEF
:10524000048BB7EE008AF0EE008A90ED001A90ED24
:10525000010AF0EE480A61EE011A16460F460446AE
:1052600040EE001A51EEA80AD0ED031A21EE211AE1
:10527000D0ED021A00EE211A21EE280AFFF7FCFAFF
:1052800010EE100A01F0E6FB9FED269B53EC192B64
:1052900001F0E2FA01F0AEFA386094ED010AD4EDC3
:1052A000030A94ED021A20EE200AD4ED000A00EE63
:1052B000C10AF8EE000A20EE200AFFF747FA10EEC6
:1052C000100A01F0C7FB53EC192B01F0C5FA01F0ED
:1052D00091FA306094ED001A94ED030AF0EE480A5A
:1052E00061EE011A40EE001A51EEA80AD4ED011A3F
:1052F00021EE211AD4ED021A01EE801A21EE280ABD
:10530000FFF7BAFA10EE100A01F0A4FB53EC192BC8
:1053100001F0A2FA01F06EFA2860BDEC048BBDE842
:10532000F08100006666666666A64C40012000F0CB
:1053300067FAFBE7F0B5264EDFF898E0002306F1A8
:10534000480C06F1240700BF03EB430506EB850478
:1053500092ED050AD4ED000A94ED011A20EE200A20
:10536000D2ED060A00EE810AD2ED070A94ED021A88
:105370000CEB830400EE810AD4ED000A00EB8304F9
:1053800030EE200A84ED000A07EB850492ED010A55
:10539000D4ED000A94ED011A20EE200AD2ED020AA3
:1053A00000EE810AD2ED030A94ED021A0EEB83049B
:1053B00000EE810AD4ED000A01EB83045B1CDBB232
:1053C000032B30EE200A84ED000ABDD3F0BD0000AF
:1053D00080010020B04A0020394910B50878C40780
:1053E0003848D0E9123220D018680068C0071CD1B4
:1053F00010680068C00718D14878800715D48878ED
:10540000800712D4087820F001000870087840F076
:1054100002000870002201212B48FCF717FC2849E4
:1054200008223431A1F1080044E04878C407274835
:105430001ED01C682468E4071AD114682468E407A5
:1054400016D10C78A40713D48C78A40710D44A780A
:1054500022F001024A704A7842F002024A700022A9
:105460001021FCF7F3FB1648092219493C3021E0D2
:105470008C78E40722D01B681B68DB071ED11268FA
:105480001268D2071AD10A78920717D44A7892077D
:1054900014D48A7822F001028A708A7842F00202DB
:1054A0008A7000221021FCF7D1FB05490422283123
:1054B000A1F12200BDE81040FEF7A2BB10BD000024
:1054C000380100207804002000040240000002405F
:1054D000804A00200149096848637047B0060020EF
:1054E00010B51848184C4179A9B1DFED180A2046CB
:1054F000FEF7C4FA94ED080AB5EEC00AF1EE10FA10
:1055000003D29FED130A84ED080ABCEEC00A10EE28
:10551000100A80B212E010EE101A0E4A91420BDD12
:105520000179491CC9B20171C82905D901219FED32
:105530000A0A417184ED0A0A41F28730BDE8104041
:10554000FFF7C8BF38010020BC4A002000002042FD
:10555000000000000000204200401C4508B5072064
:1055600000E0642000F04CF9FBF7E2F80028F8D1E5
:10557000704A0092A2F11009101D09F1040183463E
:10558000FBF7EEF84A46A2F14001A1F10C00FFF74B
:10559000D1FEDFED690A9FED690A694A002109F130
:1055A0003000FEF7FFFAA9F13402A2F10C0101F17B
:1055B0001800FBF715F8A9F14007A7F1180597EDBA
:1055C000000AA5F10C0685ED000AA5F1180886ED84
:1055D000000A88ED000A97ED010A002085ED010A16
:1055E00086ED010A88ED010A97ED020A85ED020AAF
:1055F00086ED020A88ED020A00F038F900F0E2FFB9
:10560000504C102160625048C161FCF76BFE08B13C
:10561000FBF7ECFB4B4908223431A1F10800FEF7FF
:1056200059FB0120E0704FF0FF3A5146012000F095
:10563000CFFC0128F9D12078400708D5207820F048
:10564000040020703F4859463530FBF741F8607838
:1056500040070BD5607820F004006070354A09F1EE
:1056600004011032A2F12A00FAF7ECFFA0784007FB
:105670000CD5A07820F00400A070324800992A30A0
:10568000FBF748F999ED040AFFF72AFF294A103A77
:10569000A2F14001A1F10C00FFF74CFE96ED000ACB
:1056A0009FED2A1A88ED000AD5ED000A2148C6EDC3
:1056B000000A60EE811ADFED260A97ED002A5C38B9
:1056C00040EE201A9FED230A42EE001AC5ED001AA3
:1056D000D6ED012AC8ED012A95ED012A86ED012AB1
:1056E00022EE012A02EEA02AD7ED012A02EE802A3C
:1056F00085ED012A96ED023A88ED023AD5ED022AAF
:10570000C6ED022A62EE812A43EE202AD7ED020A74
:1057100040EE802AC5ED022A90EC030A2430FEF701
:10572000B9F804480C4B0D4A0D493838FFF784FD91
:105730007BE700009C4A00200080894500A08C4542
:10574000F06B000838010020780400205AF8F63F7A
:105750005D896EBFD5A9183B8C4B0020704B002093
:10576000104B002010EE100AF6EE000A074960EE1A
:10577000200AA1EB600000EE100A20EE801AF7EE7E
:10578000080A41EE400A20EE800A7047DF59375F71
:10579000FCF770FAFEF7AEFBFDF772FEFDF7E6FDD3
:1057A000FDF7A0FDFDF7C0FDFDF75EFFFDF792FFE1
:1057B000FDF7C2FFFDF7F4FFFDF724FFFEF716F833
:1057C000FEF730F8FEF74AF8FDF7F8FEFBF7C4F8ED
:1057D000FBF7ECF8FEF7B4FEFEF776FF0448FDF7A2
:1057E0004BF8FFF7C3FCFDF717FE00F010F8FEE7DB
:1057F0009005002001460020842900D0C81C704775
:1058000010B500B9012000F009FD002010BD10B551
:1058100000F084FD002010BD7FB50D4604464169AF
:10582000B0F9080081B1A16971B1FFF7E3FFD4E9D4
:1058300005128DE80700D4E900102B46226900F01C
:1058400096FE039004B070BDFFF7D4FF03A9CDE925
:105850000001208A2B4682B2D4E9001000F05AFEE3
:10586000012801D00020EDE70398EBE708B90648CE
:10587000006808B134307047502080F31188BFF3BE
:105880004F8FBFF36F8FFEE724000020D0ED0E1A7C
:10589000C0ED0F1AC0ED050A80ED060A30EEC00A11
:1058A00080ED0E0AD0ED000A20EE801A80ED081A75
:1058B000D0ED090A90ED012A42EE000A30EE610AAD
:1058C000C0ED090A90ED0B2A80ED0C2A80ED0B0A41
:1058D000D0ED021A61EE801AC0ED0A1A90ED040AAA
:1058E000F4EEC00AF1EE10FA09DCB1EE400AF4EE73
:1058F000C00AF1EE10FA02D390ED090A01E080ED42
:10590000090A31EE000A30EE210A80ED070AD0EDD7
:10591000030AB4EEE00AF1EE10FA06DCF1EE600ADA
:10592000B4EEE00AF1EE10FA01D2C0ED070A90EDF4
:10593000070A7047002827D0002925D091ED001ACA
:1059400080ED001A91ED011A80ED011A91ED021A15
:1059500080ED021A80ED030A9FED0C0AC0ED040AE7
:1059600080ED0D0A80ED0C0A80ED0B0A80ED070A30
:1059700080ED0A0A80ED090A80ED080A80ED100A20
:1059800080ED0F0A80ED0E0A704700000000000055
:105990002DE9F041184C0F460546E6682068001DC9
:1059A00000F04AFB38B9206890F82C10012088409C
:1059B000216981432161681C07D137B12168BDE8A5
:1059C000F0410E48091D00F07BBB20683544B5420C
:1059D0004560216805D2A06BBDE8F041091D00F0CB
:1059E00057BB606B091D00F053FBA06A854200D2D3
:1059F000A562BDE8F081000024000020E00A00203C
:105A00002DE9F041054600F067FB2E4CA068401CD4
:105A1000A06020682C4F10B1606940B32DE0256074
:105A2000A068012829D1002606EB860007EB80003C
:105A300000F020FB761C072EF6D323488C3000F0B4
:105A400019FB2148A03000F015FB1F48B43000F0CE
:105A500011FB1D48C83000F00DFB1B48DC3000F086
:105A600009FB19488C3060631430A06305E020689E
:105A7000E96AC06A884200D82560606A401C60629A
:105A8000E96A0120226988401043206101EB81000E
:105A900007EB8000291D00F013FB00F03DFB60695F
:105AA00000280CD02068E96AC06A884207D20749FA
:105AB0004FF080500860BFF34F8FBFF36F8FBDE88A
:105AC000F081000024000020040A002004ED00E022
:105AD00010B5044690F8510058B101280CD00228A6
